:1000000063C000000C94DC0C0C94030D85C0000050
:1000100083C0000081C000007FC000000C94BF11AD
:100020007BC0000079C0000077C0000075C00000F0
:1000300073C000000C9425126FC000006DC000005A
:100040000C942A0D69C000000C94FE0F0C94301023
:1000500063C0000061C000005FC000005DC0000020
:100060005BC0000059C00000000000080002010051
:100070000003040700000000000000000102040863
:100080001020408001020408102001020408102002
:10009000040404040404040402020202020203032E
:1000A00003030303000000002300260029000000D2
:1000B0000000250028002B0000000000240027007D
:1000C0002A0002005510CF1011241FBECFEFD8E038
:1000D000DEBFCDBF11E0A0E0B1E0EEE9FBE202C07F
:1000E00005900D92A03AB107D9F727E0A0EAB1E058
:1000F00001C01D92A73AB207E1F710E0C8ECD0E0CA
:1001000004C02297FE010E94C915C43CD107C9F75B
:100110000E948A120C94CD1573CFCA0130E02830AA
:10012000310511F424E030E0E091C101F091C20109
:10013000289FA001299F500D389F500D1124028047
:10014000F381E02D81EC91E00994662311F061E0E8
:1001500001C060E00C94350E662311F061E001C02F
:1001600060E00C946E0E2F923F924F925F926F92CE
:100170007F928F929F92AF92BF92CF92DF92EF9237
:10018000FF920F931F93CF93DF93CDB7DEB72C97DA
:100190000FB6F894DEBF0FBECDBF2B013C012987FF
:1001A0003A874B875C871A830983F886EF82DC8263
:1001B000CB82BE82AD82640129A03AA00BA11CA112
:1001C000EDA0FEA02114310441F48114910429F41E
:1001D0000E943E1518160CF401C229853A854B85FC
:1001E0005C85C301B2010E944E1318160CF0F6C1D3
:1001F0008601000F111F000F111FE981FA81E00F26
:10020000F11F80809180A280B380A5019401C30179
:10021000B2010E944E1318160CF46DC0EF81F885E0
:10022000E00FF11F8FA181112DC18B819C8101975E
:10023000C816D90621F09FEFC91AD90A02C0C12CED
:10024000D12C1601220C331C220C331CA981BA813B
:10025000A20DB31DCD90DD90ED90FC90808189833F
:1002600091819B8382818D8393819987EF81F8852A
:10027000E20DF31D0081118132802380A5019401DC
:10028000C701B6010E944E1381110BC0A701960150
:10029000C301B2010E943E1587FD99C1E32CF22CE7
:1002A0009DC1A3019201C701B6010E94D6122B0184
:1002B0003C01A5019401C701B6010E94D6129B0121
:1002C000AC01C301B2010E9452136B017C01298170
:1002D0003B814D8159850E9442154B015C01A7016C
:1002E000960160E070E080E89FE30E94D6129801DA
:1002F000432D522D61C188A58823B9F0ED81FE817F
:10030000208131812114310431F0C101019722157E
:10031000330551F407C08B819C810197232B21F475
:10032000ED81FE81918380831C01ED81FE8100813E
:100330001181F801EE0FFF1FEE0FFF1F89819A81D7
:10034000E80FF91FA301920160817181828193817D
:100350000E944E13EB80FC8087FD04C091E0E91AF7
:10036000F10827C0E1E0EE1AF108F801EE0FFF1FD7
:10037000EE0FFF1F89819A81E80FF91FA3019201F7
:1003800060817181828193810E944E1387FF32C008
:100390000215130579F10E151F051CF000E010E0A1
:1003A000E4CF0F5F1F4FE1CF10161106B4F40150D8
:1003B0001109F801EE0FFF1FEE0FFF1F89819A81CF
:1003C000E80FF91FA30192016081718182819381FD
:1003D0000E943E1587FFE8CF02C08701EACF8B81DC
:1003E0009C810197081719071CF40F5F1F4F02C06B
:1003F00000E010E0ED81FE81118300831801220CE2
:10040000331C220C331CFFA1FF2309F455C0E981E2
:10041000FA81E20DF31D80809180A280B380C50136
:10042000B4019F7720E030E040E857E30E94421596
:100430006B017C0120E030E040E857E30E944E135E
:1004400087FF06C0C12CD12C30E8E32E37E3F32E12
:1004500020E030E040E05FE3C701B6010E944215B2
:100460009B01AC01C501B4010E94D6129B01AC01F5
:10047000C301B2010E943E1587FD09C0EF81F885D6
:10048000E20DF31D00811181E280F380A7C0012BF2
:1004900069F4EB81FC81E150F04CEE0FFF1FEE0F91
:1004A000FF1F8F819885E80FF91FECCFEF81F8854A
:1004B000E20DF31D3497E6CF01151105A9F4EB8188
:1004C000FC81E150F04CEE0FFF1FEE0FFF1FA981E2
:1004D000BA81AE0FBF1F8D909D90AD90BC908F8163
:1004E0009885E80FF91F12C00150104C000F111F22
:1004F000000F111FE981FA81E00FF11F80809180C8
:10050000A280B380EF81F885E00FF11F0081118197
:1005100092819B8383818D83E981FA81E20DF31DB2
:10052000C080D180E280F380EF81F885E20DF31D79
:10053000308021809281998383818F83A5019401EA
:10054000C701B6010E944E1381110DC0A70196018B
:10055000C301B2010E943E1587FD3EC0032D122D3E
:10056000E980FF803BC0A3019201C701B6010E9450
:10057000D6122B013C01A5019401C701B6010E94CE
:10058000D6129B01AC01C301B2010E9452136B0150
:100590007C0198014B815D810E9442154B015C01F9
:1005A000A701960160E070E080E89FE30E94D61208
:1005B000232D322D49815F810E9442159B01AC01A0
:1005C000C501B4010E94D7128B017C0107C00981CB
:1005D0001B81ED80F98402C0EB80FD80B801C7016A
:1005E0002C960FB6F894DEBF0FBECDBFDF91CF9132
:1005F0001F910F91FF90EF90DF90CF90BF90AF9041
:100600009F908F907F906F905F904F903F902F9032
:100610000895CF92DF92EF92FF926B017C019F775A
:1006200020E030E040E859E50E944E1387FF3AC0D1
:1006300020E030E040E05FE3C701B6010E943E15D4
:1006400087FD0EC020E030E040E05FE3C701B60167
:100650000E94D712FF90EF90DF90CF900C94281457
:1006600020E030E040E05FEBC701B6010E943E159C
:10067000181654F420E030E0A901C701B6010E9429
:1006800042156B017C010EC020E030E040E05FE3EA
:10069000C701B6010E94D612FF90EF90DF90CF9075
:1006A0000C943B13C701B601FF90EF90DF90CF9001
:1006B0000895CF93DF93C091F102D091F20280911F
:1006C0000E0190910F01A0911001B0911101BC0198
:1006D000CD01905820910A0130910B0140910C01FD
:1006E00050910D010E94521320917D0730917E0799
:1006F00040917F07509180070E94421520E030E032
:10070000A9010E94D7122091890730918A07409150
:100710008B0750918C070E94D712688379838A8354
:100720009B83DF91CF9108952F923F924F925F92DA
:100730006F927F928F929F92AF92BF92CF92DF92F1
:10074000EF92FF920F931F93CF93DF93CDB7DEB756
:1007500064970FB6F894DEBF0FBECDBF8091220321
:1007600090912303A0902503B0902603813091053A
:1007700009F5609116037091170380911803909109
:1007800019036F5F7F4F8F4F9F4F0E94EB13209194
:100790001A0330911B0340911C0350911D030E94CA
:1007A000421560937C0270937D0280937E02909349
:1007B0007F0212C0892B81F4E091AC02F091AD026E
:1007C0000190F081E02D80819181A281B381F501BA
:1007D00080839183A283B38380907507909076077E
:1007E000C0907B07D0907C07E0906307F09064078F
:1007F000009165071091660720911E0130911F013D
:100800004091200150912101D5016D917D918D91F3
:100810009C910E94D6121F9221E02F9320912501D6
:100820002F93209124012F93209123012F93209126
:1008300022012F93209178072F93209177072F93F0
:1008400059E7A52E57E0B52E20E030E0A9018BDC5A
:100850002B013C010FB6F894DEBF0FBECDBFE3E322
:10086000F3E081919191A191B1910197A105B10519
:10087000B9F0E3E3F3E081E090E0A0E0B0E0819341
:100880009193A193B19323E0E335F207C1F7C3013C
:10089000B201BFDE6B017C0149D6811125C005C0C4
:1008A00083E0E335F807E9F6F2CFC701B60113D6C6
:1008B00081111AC020E030E040E853E4C701B601DE
:1008C0000E9442146B017C015B01870120E030E053
:1008D000A9010E944E1387FF0BC0C701B6019058B3
:1008E0000E94BF13619508C0A12CB12C00E010E05C
:1008F000B501C8010E94BF136983609157037091CD
:1009000058038091590390915A030E94BF13262FD8
:100910006091530370915403809155039091560355
:100920002C8B0E94BF13862F2C8941E050E0BE0122
:100930006F5F7F4FF2DB8091220390912303019739
:1009400009F070C0AA24A394B12C38E6C32E31E07C
:10095000D32EEE24E394F12C07E611E021E030E001
:1009600046E651E06BE573E08DE897E028D76091AB
:100970008D0770918E07882777FD8095982F0E94AC
:10098000ED1320912A0130912B0140912C015091BF
:100990002D010E944215209126013091270140919E
:1009A0002801509129010E9452136093810770938E
:1009B0008207809383079093840760911E03709150
:1009C0001F0380912003909121030E94EB132AE0E2
:1009D00037ED43E25CE30E944215209132013091F1
:1009E000330140913401509135010E944E1387FF2D
:1009F00009C08091360190913701A0913801B091E2
:100A0000390108C080913A0190913B01A0913C01CD
:100A1000B0913D018093850790938607A093870747
:100A2000B0938807A30192016091850770918607B2
:100A300080918707909188070E94D6122B013C0174
:100A40006093890770938A0780938B0790938C0734
:100A5000C0900A01D0900B01E0900C01F0900D01C4
:100A6000A701960160911201709113018091140108
:100A7000909115010E9452134B015C01A301920158
:100A80000E94421520E030E0A9010E94D7126A833B
:100A90007B838C839D83A7019601609116017091E1
:100AA000170180911801909119010E9452132B0196
:100AB0003C01A701960160910E0170910F01809198
:100AC0001001909111010E9452139B01AC01C501CC
:100AD000B4010E9442159B01AC01C301B2010E9406
:100AE000D61220917D0730917E0740917F0750916B
:100AF00080070E9442159B01AC016A817B818C8139
:100B00009D810E94D7127B018C01A0903E01B09084
:100B10003F01C0904001D09041019501A6010E9483
:100B20003E15181684F0A0904201B0904301C09089
:100B30004401D09045019501A601B701C8010E946A
:100B40004E1387FF02C07501860120914601309146
:100B500047014091480150914901B701C8010E94E5
:100B600042156B017C0120914E0130914F01409163
:100B70005001509151010E943E1587FD09C080909F
:100B80002E0190902F01A0903001B090310108C04B
:100B900080904A0190904B01A0904C01B0904D0183
:100BA00020E030E040E853E4C501B4010E944E1358
:100BB00087FF11C020E030E0A901C501B4010E9407
:100BC0003E1587FD06C0C501B4010E94BF136983AD
:100BD00004C0198202C08FEF898369818DE0BCDA7D
:100BE000E0912503F091260320E030E040E251E45B
:100BF00060817181828193810E944E1387FF03C0BF
:100C0000E894F7F803C0C12CD12C7601809122031F
:100C100090912303019709F044C0A0905201B09035
:100C2000530100915401109155019501A801C7018C
:100C3000B6010E943E15181694F0A0905601B0908F
:100C4000570100915801109159019501A801C70160
:100C5000B6010E944E1387FD02C05601870120E0B5
:100C600030E040E853E4B501C8010E944E1387FF0D
:100C700011C020E030E0A901B501C8010E943E1575
:100C800087FD06C0B501C8010E94BF13698304C077
:100C9000198202C08FEF8983698170E080911A0107
:100CA0005ED7E0912503F091260320915A013091FF
:100CB0005B0140915C0150915D0160817181828195
:100CC00093810E944E1387FF09C0C0905E01D090AF
:100CD0005F01E0906001F090610108C0C090620186
:100CE000D0906301E0906401F090650120E030E075
:100CF00040E853E4C701B6010E944E1387FF11C0BC
:100D000020E030E0A901C701B6010E943E1587FD31
:100D100006C0C701B6010E94BF13698304C01982CF
:100D200002C08FEF8983698188E016DA80912203FF
:100D300090912303019709F067C0E0912503F0919A
:100D4000260380819181A281B38120917707309120
:100D5000780740917B0750917C0741505109241737
:100D600035071CF42F5F3F4F02C020E030E0309386
:100D7000780720937707609175077091760726179B
:100D8000370769F42417350724F4A9014F5F5F4F33
:100D900002C040E050E05093760740937507220F61
:100DA000331F220F331FE0916507F0916607E20FB2
:100DB000F31F80839183A283B383809181079091F5
:100DC0008207A0918307B0918407E0916307F091B7
:100DD0006407E20FF31F80839183A283B383AA2465
:100DE000A394B12C88E6C82E81E0D82EEE24E3949B
:100DF000F12C07E611E021E030E046E651E06BE53A
:100E000073E08DE897E007D5A0912203B09123030A
:100E1000BF87AE87119709F084C1E091AC02F091D1
:100E2000AD020190F081E02D80819181A281B3819A
:100E300088879987AA87BB8780917C0290917D02E1
:100E4000A0917E02B0917F02888B998BAA8BBB8B7D
:100E5000E0918002F0918102C080D180E280F38035
:100E6000E091B002F091B102A081B181BB83AA836D
:100E7000E0917402F0917502808191819F838E834D
:100E80000281138124803580A681B781BD87AC871C
:100E9000E0917202F091730211821082EA81FB816B
:100EA00080819181A281B381EE81FF8180839183D2
:100EB000A283B383E091AA02F091AB021183008375
:100EC000F8DB20E030E040E05FE3C701B6010E94BC
:100ED00042152B013C01D8012D913D914D915C9122
:100EE0000E9442159B01AC01EE81FF8160817181FE
:100EF000828193810E94D712AA81BB816D937D93D9
:100F00008D939C931397E091AC02F091AD02A08079
:100F1000B180A3019201688579858A859B850E94AD
:100F2000D712F5016083718382839383E091AA02D3
:100F3000F091AB0231822082F7DBBBDB20E030E0B6
:100F400040E45FE3C701B6010E9442154B015C011A
:100F500020E030E0A901C701B6010E944215D80186
:100F60002D913D914D915C910E9442152B013C01C8
:100F7000F1012081318142815381C501B4010E9478
:100F800042159B01AC01C301B2010E94D7129B0123
:100F9000AC01AE81BF816D917D918D919C910E943C
:100FA000D712EA81FB816083718382839383E0910E
:100FB000AC02F091AD0260807180A501940168855A
:100FC00079858A859B850E94D712D3016D937D9385
:100FD0008D939C931397E091AA02F091AB028C85BC
:100FE0009D8591838083A0DB64DB29E33EE843E6B3
:100FF0005EE3C701B6010E944215D8012D913D91D3
:101000004D915C910E9442154B015C012BEA3AEA3A
:101010004AEA5EE3C701B6010E944215F101208150
:101020003181428153810E9442159B01AC01C5016F
:10103000B4010E94D7124B015C0129E33EE843EE64
:101040005EE3C701B6010E944215AC85BD852D91B6
:101050003D914D915C910E9442159B01AC01C501EF
:10106000B4010E94D7129B01AC01EE81FF81608127
:101070007181828193810E94D712AA81BB816D9375
:101080007D938D939C931397E091AC02F091AD0208
:101090000190F081E02D88899989AA89BB89808394
:1010A0009183A283B383E0917202F0917302AE85C3
:1010B000BF85B183A0838091160390911703A091FF
:1010C0001803B09119030196A11DB11D8093160359
:1010D00090931703A0931803B093190380917C0297
:1010E00090917D02A0917E02B0917F02E091250354
:1010F000F091260380839183A283B38380911E03A2
:1011000090911F03A0912003B09121030196A11D8E
:10111000B11D80931E0390931F03A0932003B093EF
:10112000210364960FB6F894DEBF0FBECDBFDF91EA
:10113000CF911F910F91FF90EF90DF90CF90BF90D4
:10114000AF909F908F907F906F905F904F903F9067
:101150002F900895CF92DF92EF92FF92CF93DF937B
:1011600084E090E081D1EEE6F2E081ECDF011D92B7
:101170008A95E9F782E293E090937302809372027A
:10118000A5E2B3E0B093AD02A093AC02CAE1D3E014
:10119000D0938102C093800221EF32E03093AB0202
:1011A0002093AA022BEE32E03093B1022093B002DA
:1011B00040E153E05093AF024093AE0242E153E06E
:1011C0005093B3024093B2024DEE52E05093B502F9
:1011D0004093B4024FEE52E05093B7024093B602F0
:1011E000F093D702E093D602F0937102E09370027D
:1011F00041E050E0FC015183408388E093E048EFF8
:1012000052E0FC01518340834CEF52E050930B03BA
:1012100040930A0340E053E050930D0340930C03C6
:1012200044E053E050930F0340930E034DE757E023
:10123000F9015183408390937502809374028EE686
:1012400091E0909377028093760287E293E08D930A
:101250009C938AE097EDA3E2BCE388839983AA83F9
:10126000BB838EE0A1E8B7E0FD0111928A95E9F712
:10127000DA011D921D921D921C921397EFE2F3E08A
:101280008EE494E0DF019C011D9221503040E1F793
:1012900080E890E090937C0780937B078091220107
:1012A00090912301A0912401B091250184AB95ABCD
:1012B000A6ABB7AB83E693E0909364078093630794
:1012C00083E695E09093660780936507C12CD12C47
:1012D0007601C394C082D182E282F382C482D58235
:1012E000E682F782C086D186E286F386C486D586FA
:1012F000E686F786C08AD18AE28AF38AC48AD58ACA
:10130000E68AF78AC08ED18EE28EF38EC48ED58E99
:10131000E68EF78EC0A2D1A2E2A2F3A280E090E016
:10132000A0E8BFE38093570390935803A093590319
:10133000B0935A03C0926D07D0926E07E0926F0788
:10134000F092700761E08DE00E94A50061E080915D
:101350001A018BD4C0927107D0927207E092730782
:10136000F092740761E088E00E94A50010925B0390
:1013700010925C0310925D0310925E0310927D0741
:1013800010927E0710927F0710928007DF91CF9115
:10139000FF90EF90DF90CF90089580912F03909170
:1013A0003003A0913103B09132030197A105B1053B
:1013B00061F482E090E0A0E0B0E080932F0390938E
:1013C0003003A0933103B093320380916D07909165
:1013D0006E07A0916F07B09170070197A105B10545
:1013E00061F482E090E0A0E0B0E080936D0790931C
:1013F0006E07A0936F07B09370078091710790916B
:101400007207A0917307B09174070197A105B10508
:1014100061F482E090E0A0E0B0E0809371079093E7
:101420007207A0937307B0937407089560E070E0AB
:1014300080E89FE7089560E070E080E89FE7089506
:1014400060E070E080E89FEF089560E070E080E881
:101450009FEF089560E070E080EC9FEF089560E0FA
:1014600070E080EC9FEF0895F5DF60939B07709329
:101470009C0780939D0790939E07F1DF60938F07F1
:10148000709390078093910790939207CFDF6093BA
:101490009707709398078093990790939A07CBDFEB
:1014A00060939307709394078093950790939607A2
:1014B000C7DF60939F077093A0078093A107909365
:1014C000A207C3DF6093A3077093A4078093A507C7
:1014D0009093A6070895CF92DF92EF92FF92CF9359
:1014E0006B017C01209197073091980740919907F3
:1014F00050919A070E944E13882389F0C1E02091F1
:101500009F073091A0074091A1075091A207C70102
:10151000B6010E944E138111C0E08C2F01C081E002
:10152000CF91FF90EF90DF90CF900895CF93C1E0DF
:101530009B01AC010E944E13811101C0C0E08C2FB1
:10154000CF91089502978431910540F4FC01EB5846
:10155000FE4F8081992787FD909508958FEF9FEF2B
:101560000895CF93DF93EC0160E070E06C177D0786
:101570000CF5882777FD8095982F0E94ED1320E0C9
:1015800030E0A9010E94D71220E030E0A9010E94BA
:10159000D71220E030E040E450E40E94D71220E06F
:1015A00030E040E450E40E94D6120E94BA136F5F0C
:1015B0007F4FDCCFDF91CF910895CF93DF93809160
:1015C000A2019091A301BFD3EC018091A60190915B
:1015D000A701C7DF8091A0019091A101B4D3019729
:1015E00039F48091A4019091A501CD2B49F406C056
:1015F0008091A4019091A501219711F4019601C059
:1016000001979093A5018093A401DF91CF91089554
:10161000CF93DF938091A0019091A10194D3EC012D
:101620008091A6019091A7019CDF8091A2019091E9
:10163000A30189D3019739F48091A4019091A50168
:10164000219749F406C08091A4019091A501CD2B6A
:1016500011F4019601C001979093A5018093A40114
:10166000DF91CF910895CF93DF938091AA0190915C
:10167000AB0169D3EC018091AE019091AF0171DFB4
:101680008091A8019091A9015ED3019739F48091CE
:10169000AC019091AD01CD2B49F406C08091AC0115
:1016A0009091AD01219711F4019601C0019790939B
:1016B000AD018093AC01DF91CF910895CF93DF937B
:1016C0008091A8019091A9013ED3EC018091AE01D7
:1016D0009091AF0146DF8091AA019091AB0133D385
:1016E000019739F48091AC019091AD01219749F4B3
:1016F00006C08091AC019091AD01CD2B11F4019603
:1017000001C001979093AD018093AC01DF91CF911F
:101710000895CF93DF938091B2019091B30113D3D9
:10172000EC018091B6019091B7011BDF8091B0016F
:101730009091B10108D3019739F48091B40190914F
:10174000B501CD2B49F406C08091B4019091B5014B
:10175000219711F4019601C001979093B5018093F0
:10176000B401DF91CF910895CF93DF938091B001C1
:101770009091B101E8D2EC018091B6019091B7014E
:10178000F0DE8091B2019091B301DDD2019739F47E
:101790008091B4019091B501219749F406C08091E0
:1017A000B4019091B501CD2B11F4019601C00197C0
:1017B0009093B5018093B401DF91CF9108950F9379
:1017C0001F93CF93DF938C01EA0120E030E040E8E3
:1017D0005FE3FB0160817181828193815FD7811119
:1017E00015C0E88188E0E89FF0011124E056FE4F23
:1017F00084819581F80191838083E88188E0E89F66
:10180000F0011124E056FE4F15821482DF91CF9132
:101810001F910F910895CF92DF92EF92FF920F9355
:101820001F93CF93DF937B01EA0120E030E040E893
:101830005FE3DB016D917D918D919C912FD7882382
:1018400009F490C0E881D8018C9190E0B8E0EB9F5A
:10185000F0011124E056FE4F91838083E881D60188
:101860008C9190E0B8E0EB9FF0011124E056FE4F20
:1018700093838283E88128E0E29FF0011124E056FF
:10188000FE4F8081918160E0F0D1E88188E0E89F9F
:10189000F0011124E056FE4F8281938160E0E5D192
:1018A000E881A8E0EA9FF0011124E056FE4F808114
:1018B000918161E013D2E881B8E0EB9FF00111243F
:1018C000E056FE4F8281938161E008D288818130A9
:1018D00061F1B8F0823009F03CC08091B001909184
:1018E000B10130DE41E050E069E87BE045D0809115
:1018F000B2019091B30126DE41E050E064EB7BE061
:1019000027C08091A0019091A1011CDE41E050E030
:101910006DED7AE031D08091A2019091A30112DEA9
:1019200041E050E068E07BE013C08091A801909115
:10193000A90108DE41E050E063E37BE01DD0809127
:10194000AA019091AB01FEDD41E050E06EE57BE045
:1019500013D080E090E0A0E8BFE3F701808391839B
:10196000A283B383DF91CF911F910F91FF90EF90EE
:10197000DF90CF90089508958230E8F4E82FF0E0EA
:10198000EE0FFF1FE759FE4F71836083813041F0F6
:10199000809169008C7F842B80936900E89A089578
:1019A00080916900440F551F440F551F837F842B7E
:1019B00080936900E99A08951F920F920FB60F92D3
:1019C00011242F933F934F935F936F937F938F9344
:1019D0009F93AF93BF93EF93FF93E0916901F091D1
:1019E0006A010995FF91EF91BF91AF919F918F91FE
:1019F0007F916F915F914F913F912F910F900FBE0B
:101A00000F901F9018951F920F920FB60F921124EE
:101A10002F933F934F935F936F937F938F939F93F6
:101A2000AF93BF93EF93FF93E0916B01F0916C0143
:101A30000995FF91EF91BF91AF919F918F917F9108
:101A40006F915F914F913F912F910F900FBE0F902B
:101A50001F9018951F920F920FB60F9211242F937B
:101A60003F938F939F93AF93BF938091B9019091D0
:101A7000BA01A091BB01B091BC013091B80123E043
:101A8000230F2D3720F40196A11DB11D05C026E8B6
:101A9000230F0296A11DB11D2093B8018093B901B7
:101AA0009093BA01A093BB01B093BC018091BD019A
:101AB0009091BE01A091BF01B091C0010196A11DFE
:101AC000B11D8093BD019093BE01A093BF01B0935F
:101AD000C001BF91AF919F918F913F912F910F9036
:101AE0000FBE0F901F901895789484B5826084BDC6
:101AF00084B5816084BD85B5826085BD85B5816012
:101B000085BDEEE6F0E0808181608083E1E8F0E071
:101B10001082808182608083808181608083E0E8A0
:101B2000F0E0808181608083E1EBF0E0808184607F
:101B30008083E0EBF0E0808181608083EAE7F0E081
:101B400080818460808380818260808380818160E5
:101B500080838081806880831092C10008951F93E4
:101B6000CF93DF93182FEB0161E07FD0209711F422
:101B700060E004C0CF3FD10531F461E0812FDF91F7
:101B8000CF911F91ABC0E12FF0E0E859FF4FE491F6
:101B9000E330F9F048F4E130B9F0E230A1F584B572
:101BA000806284BDC8BD34C0E730E9F0E83019F187
:101BB000E43049F580918000806280938000D0936A
:101BC0008B00C0938A0024C084B5806884BDC7BDE3
:101BD0001FC080918000806880938000D09389002E
:101BE000C093880015C08091B00080688093B000D9
:101BF000C093B3000DC08091B00080628093B000AC
:101C0000C093B40005C0C038D1050CF0B6CFB0CF3A
:101C1000DF91CF911F910895833081F028F48130B6
:101C200099F08230A1F008958730A9F08830B9F09A
:101C30008430D1F4809180008F7D03C0809180003A
:101C40008F7780938000089584B58F7702C084B524
:101C50008F7D84BD08958091B0008F7703C08091FF
:101C6000B0008F7D8093B0000895CF93DF9390E014
:101C7000FC01E458FF4F2491FC01E057FF4F849191
:101C8000882349F190E0880F991FFC01E854FF4F29
:101C9000A591B49182559F4FFC01C591D4919FB7F6
:101CA000611108C0F8948C91209582238C938881CF
:101CB00082230AC0623051F4F8948C91322F30950F
:101CC00083238C938881822B888304C0F8948C9121
:101CD000822B8C939FBFDF91CF9108950F931F9319
:101CE000CF93DF931F92CDB7DEB7282F30E0F901F5
:101CF000E859FF4F8491F901E458FF4F1491F9011D
:101D0000E057FF4F04910023C1F0882319F0698345
:101D100083DF6981E02FF0E0EE0FFF1FE255FF4FF8
:101D2000A591B4919FB7F8948C91611103C010955F
:101D3000812301C0812B8C939FBF0F90DF91CF91A6
:101D40001F910F910895CF93DF93282F30E0F90171
:101D5000E859FF4F8491F901E458FF4FD491F901FC
:101D6000E057FF4FC491CC2389F0811155DFEC2F50
:101D7000F0E0EE0FFF1FEC55FF4FA591B4912C91B1
:101D80002D2381E090E021F480E002C080E090E02B
:101D9000DF91CF910895FC01818D228D90E0805CD0
:101DA0009F4F821B91098F7399270895FC01918D94
:101DB000828D981731F0828DE80FF11D858D90E0AE
:101DC00008958FEF9FEF0895FC01918D828D9817F4
:101DD00061F0828DDF01A80FB11D5D968C91928D0F
:101DE0009F5F9F73928F90E008958FEF9FEF08950C
:101DF000FC01848DDF01A80FB11DA35ABF4F2C91A8
:101E0000848D90E001968F739927848FA689B78976
:101E10002C93A089B1898C9180648C93938D848D4F
:101E2000981306C00288F389E02D80818F7D80831E
:101E30000895CF93DF93EC01888D8823C1F0EA8960
:101E4000FB89808185FD05C0A889B9898C9186FDB3
:101E50000EC00FB607FCF5CF808185FFF2CFA889B1
:101E6000B9898C9185FFEDCFCE01C2DFE8CFDF913C
:101E7000CF910895CF92DF92FF920F931F93CF934C
:101E8000DF931F92CDB7DEB76C0181E0D601589683
:101E90008C9358975B969C915B975C968C915C9722
:101EA000981307C05096ED91FC915197808185FD64
:101EB0002DC0F601038D10E00F5F1F4F0F73112728
:101EC000F02EF601848DF81210C00FB607FCF9CF82
:101ED000D6015096ED91FC915197808185FFF1CF0D
:101EE000C601698385DF6981ECCF838DE80FF11D21
:101EF000E35AFF4F6083D6015B960C935B97529633
:101F0000ED91FC915397808180620CC0D60156966A
:101F1000ED91FC91579760835096ED91FC9151970C
:101F200080818064808381E090E00F90DF91CF9189
:101F30001F910F91FF90DF90CF900895BF92CF92A5
:101F4000DF92EF92FF92CF93DF93EC016A017B0166
:101F5000B22EE889F98982E08083411581EE580725
:101F60006105710599F060E079E08DE390E0A701EB
:101F70009601EBD5215031094109510956954795F4
:101F800037952795211580E1380790F0E889F98980
:101F9000108260E874E88EE190E0A7019601D5D543
:101FA0002150310941095109569547953795279593
:101FB000EC85FD853083EE85FF852083188EEC89C6
:101FC000FD89B082EA89FB89808180618083EA890A
:101FD000FB89808188608083EA89FB8980818068B1
:101FE0008083EA89FB8980818F7D8083DF91CF9117
:101FF000FF90EF90DF90CF90BF9008951F920F92C7
:102000000FB60F9211242F938F939F93EF93FF930B
:10201000E091D101F091D2018081E091D701F0915E
:10202000D80182FD12C090818091DA018F5F8F7399
:102030002091DB01821751F0E091DA01F0E0EF53DB
:10204000FE4F958F8093DA0101C08081FF91EF915F
:102050009F918F912F910F900FBE0F901F90189509
:102060001F920F920FB60F9211242F933F934F930D
:102070005F936F937F938F939F93AF93BF93EF93F0
:10208000FF9381EC91E0B4DEFF91EF91BF91AF91AE
:102090009F918F917F916F915F914F913F912F9180
:1020A0000F900FBE0F901F9018951092C4011092C0
:1020B000C30188EE93E0A0E0B0E08093C501909367
:1020C000C601A093C701B093C8018DE891E0909339
:1020D000C2018093C10185EC90E09093CE01809382
:1020E000CD0184EC90E09093D0018093CF0180ECFF
:1020F00090E09093D2018093D10181EC90E0909395
:10210000D4018093D30182EC90E09093D601809328
:10211000D50186EC90E09093D8018093D70110927E
:10212000DA011092DB011092DC011092DD010895BA
:10213000AF92BF92CF92DF92EF92FF920F931F93D5
:10214000CF93DF936C017B01C0E0D0E000E010E0B2
:10215000F601EC0FFD1F4AE050E06281C701D6D0C6
:102160005C016EE2C70168D08A0D9B1D080F191F24
:102170002196C330D10561F74AE050E0F601658150
:10218000C701C4D0800F911FDF91CF911F910F9194
:10219000FF90EF90DF90CF90BF90AF9008958DE9C2
:1021A00091E090935F0280935E0210926002109221
:1021B000610210926202109263020895CF92DF9240
:1021C000EF92FF920F931F93CF93DF937C016A01ED
:1021D000EB0100E010E00C151D0571F06991D701CD
:1021E000ED91FC910190F081E02DC7010995892BBB
:1021F00019F00F5F1F4FEFCFC801DF91CF911F91F3
:102200000F91FF90EF90DF90CF90089561157105C9
:1022100081F0DB010D900020E9F7AD01415051093B
:10222000461B570BDC01ED91FC910280F381E02D00
:10223000099480E090E00895DC01ED91FC9101901B
:10224000F081E02D09948F929F92AF92BF92CF922E
:10225000DF92EF92FF920F931F93CF93DF93CDB74F
:10226000DEB7A1970FB6F894DEBF0FBECDBF7C01DD
:10227000C42EE52FCB01D22E19A221E02D1510F08E
:102280002AE0D22E8E010F5D1F4F8D2C912CA12C98
:10229000B12C6C2D7E2FA501940157D48C2DD29E8C
:1022A00080191124015011098A3014F4805D01C095
:1022B000895CF8018083211531054105510521F024
:1022C000C22EE32FCA01E5CFB801C7019FDFA19657
:1022D0000FB6F894DEBF0FBECDBFDF91CF911F9137
:1022E0000F91FF90EF90DF90CF90BF90AF909F90B5
:1022F0008F9008952115310541F4DC01ED91FC9199
:102300000190F081E02D642F09949DCF9A01462F12
:1023100050E060E070E0EECF813039F018F08230AC
:1023200051F0089510926E00089580916F008D7F96
:1023300080936F000895809170008D7F809370006E
:1023400081E08093B0008091B100887F84608093A9
:10235000B1001092B3000895CF93C82F80916D0102
:102360008C1307C0E2ECF0E084919FEF90936D0135
:1023700001C08FEFD1DF60E08C2FCF91AFCC1F92E7
:102380000F920FB60F9211242F933F934F935F93A9
:102390006F937F938F939F93AF93BF93EF93FF932D
:1023A0008091670290916802A0916902B0916A02DF
:1023B000892B8A2B8B2B51F190916402E09165025D
:1023C000F0916602808189278083809167029091D5
:1023D0006802A0916902B0916A02181619061A06DD
:1023E0001B06BCF48091670290916802A09169027B
:1023F000B0916A020197A109B10980936702909395
:102400006802A0936902B0936A0203C080916D01D3
:10241000A3DFFF91EF91BF91AF919F918F917F913A
:102420006F915F914F913F912F910F900FBE0F9041
:102430001F90189540E052EC61E070E080E090E081
:1024400000C026E081EC91E079CD1F920F920FB68B
:102450000F9211242F933F934F935F936F937F932A
:102460008F939F93AF93BF93EF93FF938FE89DEF6D
:10247000909385008093840032D0FF91EF91BF91BB
:10248000AF919F918F917F916F915F914F913F910C
:102490002F910F900FBE0F901F9018958FE89DEF12
:1024A0009093850080938400AFE6B0E08C918E7F9E
:1024B0008C93E0E8F0E080818C7F8083E1E8F0E0BD
:1024C0008081877E808380818460808380818C7F0F
:1024D00080838C9181608C93089581E00895209190
:1024E0006B0281E0820F80936B02222349F081E02E
:1024F00090E090936D0280936C0220936B0208959C
:1025000078940E949403F89480916B028150809398
:102510006B020895EF92FF920F931F93CF93DF9377
:102520001F92CDB7DEB781E08983DEDA83DF0091C9
:10253000730110917401F801118210820E94AA089F
:10254000ADDFF80180819181892B29F481E0EA5483
:10255000FF4F9081911180E089837894789478017D
:10256000F6EBEF0EF11C8981882399F0F801808148
:102570009181892B21F481E0F7019081911180E014
:1025800089838981882311F0A8DF01C080E08983D5
:10259000EACF0E94CD09F89480E090E00F90DF919F
:1025A000CF911F910F91FF90EF9008955058BB2746
:1025B000AA270ED012C203D230F008D220F031F494
:1025C0009F3F11F41EF4F8C10EF4E095E7FBC5C17E
:1025D000E92F14D280F3BA176207730784079507AF
:1025E00018F071F49EF543C20EF4E0950B2EBA2F4D
:1025F000A02D0B01B90190010C01CA01A001112409
:10260000FF27591B99F0593F50F4503E68F11A16B4
:10261000F040A22F232F342F4427585FF3CF469545
:1026200037952795A795F0405395C9F77EF41F1667
:10263000BA0B620B730B840BBAF09150A1F0FF0F31
:10264000BB1F661F771F881FC2F70EC0BA0F621F1D
:10265000731F841F48F4879577956795B795F7950D
:102660009E3F08F0B3CF9395880F08F09927EE0F9F
:10267000979587950895E4D180F09F3740F49111A4
:102680000EF4F6C160E070E080E89FE3089526F064
:102690001B16611D711D811D66C180C13AD108F4F0
:1026A00081E008950CD099C191D140F088D130F0EB
:1026B00021F45F3F19F051C15111DAC17DC19ED1A2
:1026C00098F39923C9F35523B1F3951B550BBB27F9
:1026D000AA2762177307840738F09F5F5F4F220FA6
:1026E000331F441FAA1FA9F333D00E2E3AF0E0E89F
:1026F00030D091505040E695001CCAF729D0FE2FEB
:1027000027D0660F771F881FBB1F2617370748077C
:10271000AB07B0E809F0BB0B802DBF01FF27935832
:102720005F4F2AF09E3F510568F017C1A1C15F3F7E
:10273000ECF3983EDCF3869577956795B795F7951A
:102740009F5FC9F7880F911D9695879597F9089512
:10275000E1E0660F771F881FBB1F621773078407AE
:10276000BA0720F0621B730B840BBA0BEE1F88F7BD
:10277000E095089504D06894B1117AC1089546D1C6
:1027800088F09F5790F0B92F9927B751A0F0D1F05A
:10279000660F771F881F991F1AF0BA95C9F712C0E4
:1027A000B13081F064D1B1E0089561C1672F782F15
:1027B0008827B85F39F0B93FCCF386957795679550
:1027C000B395D9F73EF490958095709561957F4FBC
:1027D0008F4F9F4F0895E89409C097FB3EF4909562
:1027E0008095709561957F4F8F4F9F4F9923A9F0EA
:1027F000F92F96E9BB279395F69587957795679579
:10280000B795F111F8CFFAF4BB0F11F460FF1BC0BC
:102810006F5F7F4F8F4F9F4F16C0882311F096E94F
:1028200011C0772321F09EE8872F762F05C06623FD
:1028300071F096E8862F70E060E02AF09A95660FB6
:10284000771F881FDAF7880F9695879597F908956F
:10285000F7D080F09F3740F491110EF009C160E08D
:1028600070E080E89FEB089526F41B16611D711D32
:10287000811D79C093C0A3D018F011F0A7D038F40F
:102880009BC0F6C0E92FBAD0B0F35523C9F3E7FBDC
:102890006217730784079507A8F199F3E92FFF27BB
:1028A00088232AF03197660F771F881FDAF7952F54
:1028B0005527442332F091505040220F331F441FBC
:1028C000D2F7BB27E91BF50B621B730B840BB10915
:1028D000C1F222F4620F731F841FB11D31972AF0D9
:1028E000660F771F881FBB1FEFCF915050405AF0E3
:1028F00041F0882332F0660F771F881F91505040B7
:10290000C1F793954BC08695779567959F5FD9F7EB
:10291000F8CF990F0008550FAA0BE0E8FEEF161646
:102920001706E807F907C0F012161306E407F507C3
:1029300098F0621B730B840B950B39F40A2661F037
:10294000232B242B252B21F408950A2609F4A140DA
:10295000A6958FEF811D811D089597F99F6780E8E7
:1029600070E060E00895882371F4772321F0985097
:10297000872B762F07C0662311F499270DC090513D
:10298000862B70E060E02AF09A95660F771F881F0B
:10299000DAF7880F9695879597F908959F3F31F05C
:1029A000915020F4879577956795B795880F911D7D
:1029B0009695879597F908959FEF80EC08950024E8
:1029C0000A941616170618060906089500240A9494
:1029D00012161306140605060895092E0394000C1A
:1029E00011F4882352F0BB0F40F4BF2B11F460FFA9
:1029F00004C06F5F7F4F8F4F9F4F089557FD9058D2
:102A0000440F551F59F05F3F71F04795880F97FBB2
:102A1000991F61F09F3F79F087950895121613066C
:102A20001406551FF2CF4695F1DF08C0161617069B
:102A30001806991FF1CF86957105610508940895D0
:102A4000E5DFA0F0BEE7B91788F4BB279F3860F434
:102A50001616B11D672F782F8827985FF7CF8695B8
:102A600077956795B11D93959639C8F30895E894C5
:102A7000BB2766277727CB0197F908954ADF08F42B
:102A80008FEF08950BD0A9CF9ADF28F09FDF18F0C1
:102A9000952309F062CF90CF1124EACFAFDFA0F3E6
:102AA000959FD1F3950F50E0551F629FF001729FE3
:102AB000BB27F00DB11D639FAA27F00DB11DAA1F02
:102AC000649F6627B00DA11D661F829F2227B00D4F
:102AD000A11D621F739FB00DA11D621F839FA00DDA
:102AE000611D221F749F3327A00D611D231F849F2A
:102AF000600D211D822F762F6A2F11249F57504081
:102B00008AF0E1F088234AF0EE0FFF1FBB1F661F1B
:102B1000771F881F91505040A9F79E3F510570F0D4
:102B20001CCFA6CF5F3FECF3983EDCF386957795FC
:102B30006795B795F795E7959F5FC1F7FE2B880FCF
:102B4000911D9695879597F90895A1E21A2EAA1BD3
:102B5000BB1BFD010DC0AA1FBB1FEE1FFF1FA2174D
:102B6000B307E407F50720F0A21BB30BE40BF50B4A
:102B7000661F771F881F991F1A9469F760957095D3
:102B8000809590959B01AC01BD01CF010895EE0F9A
:0E2B9000FF1F0590F491E02D0994F894FFCFFB
:102B9E000000A7078000010000000000803F000039
:102BAE0000002FBA683D0000803F0B0000000AD7DE
:102BBE00A33D00000000000048450080BB4500001A
:102BCE00803F0000000000000000000020420000D6
:102BDE004041000040C10000AA410000000000007A
:102BEE00000000007F430000000000000000000015
:102BFE00000000000000000203BB0CBB0CFF6F6462
:102C0E006533006E020001FFFFFFFFFFFFFFFFFFB6
:102C1E00FFFFFFFFFF05040302000000003A0FDE76
:102C2E0010CB0EE40ED60E190F0000000098100007
:00000001FF
