:1000000063C000000C94BB090C94E20985C0000099
:1000100083C0000081C000007FC000000C94C10EAE
:100020007BC0000079C0000077C0000075C00000F0
:1000300073C0000071C000006FC000006DC0000000
:100040000C94090A69C000000C94000D0C94320D48
:1000500063C0000061C000005FC000005DC0000020
:100060005BC0000059C00000000000080002010051
:100070000003040700000000000000000102040863
:100080001020408001020408102001020408102002
:10009000040404040404040402020202020203032E
:1000A00003030303000000002300260029000000D2
:1000B0000000250028002B0000000000240027007D
:1000C0002A000200570DD10D11241FBECFEFD8E03A
:1000D000DEBFCDBF11E0A0E0B1E0E4E7F5E202C091
:1000E00005900D92AC39B107D9F723E0ACE9B1E046
:1000F00001C01D92A339B207E1F710E0C8ECD0E0CF
:1001000004C02297FE010E94B412C43CD107C9F773
:100110000E94760F0C94B81273CFCA0130E02830D9
:10012000310511F424E030E0E091BD01F091BE0111
:10013000289FA001299F500D389F500D1124028047
:10014000F381E02D8DEB91E00994662311F061E0DD
:1001500001C060E00C94370B662311F061E001C030
:1001600060E00C94700BCF92DF92EF92FF926B01E4
:100170007C019F7720E030E040E859E50E9439108B
:1001800087FF3AC020E030E040E05FE3C701B601FE
:100190000E94291287FD0EC020E030E040E05FE3BE
:1001A000C701B6010E94C20FFF90EF90DF90CF9081
:1001B0000C94131120E030E040E05FEBC701B60182
:1001C0000E942912181654F420E030E0A901C7015A
:1001D000B6010E942D126B017C010EC020E030E0C0
:1001E00040E05FE3C701B6010E94C10FFF90EF90AE
:1001F000DF90CF900C942610C701B601FF90EF90CE
:10020000DF90CF900895CF93DF93C091F502D09106
:10021000F60280910E0190910F01A0911001B09112
:100220001101BC01CD01905820910A0130910B01C0
:1002300040910C0150910D010E943D102091390315
:1002400030913A0340913B0350913C030E942D12A0
:1002500020E030E0A9010E94C20F209133033091C9
:10026000340340913503509136030E94C20F6883D6
:1002700079838A839B83DF91CF9108952F923F9258
:100280004F925F926F927F928F929F92AF92BF92A6
:10029000CF92DF92EF92FF920F931F93CF93DF9352
:1002A000CDB7DEB762970FB6F894DEBF0FBECDBFF5
:1002B00080912603909127038130910509F04CC06D
:1002C00060911A0370911B0380911C0390911D0390
:1002D0006F5F7F4F8F4F9F4F0E94D61020911E035C
:1002E00030911F0340912003509121030E942D1251
:1002F00060938002709381028093820290938302C4
:10030000AA24A394B12C44E6C42E41E0D42EEE24BA
:10031000E394F12C03E611E021E030E042E651E005
:1003200069E673E087E393E029D7C0901E01D0907F
:100330001F01E0902001F09021016091370370913E
:1003400038038090220190902301A0902401B09066
:100350002501E1E4F3E01BC0892B09F0CFC0E09157
:10036000B002F091B1020190F081E02D8081918185
:10037000A281B381E0912903F0912A0380839183C4
:10038000A283B383BBC083E0E136F807B1F081916B
:100390009191A191B1910197A105B105A1F3E1E47A
:1003A000F3E081E090E0A0E0B0E081939193A1932D
:1003B000B19323E0E136F207C1F7882777FD8095F6
:1003C000982F0E94D8109B01AC01C701B6010E9472
:1003D0002D12A50194010E943D104B015C01C3DE6A
:1003E0006B017C0182D581111FC0C701B60152D5B6
:1003F00081111AC020E030E040E853E4C701B601A3
:100400000E942D116B017C013B01870120E030E04F
:10041000A9010E94391087FF0BC0C701B60190588F
:100420000E94AA10619508C0612C712C00E010E0B8
:10043000B301C8010E94AA1069836091650370919D
:10044000660380916703909168030E94AA10262F8B
:1004500060916103709162038091630390916403E2
:100460002A8B0E94AA10862F2A8941E050E0BE0103
:100470006F5F7F4F52DE6091220370912303809162
:100480002403909125030E94D6102AE037ED43E221
:100490005CE30E942D1220912A0130912B014091A2
:1004A0002C0150912D010E94391087FF09C06091E5
:1004B0002E0170912F01809130019091310108C07F
:1004C0006091320170913301809134019091350136
:1004D000A50194010E94C10F20913601309137018E
:1004E00040913801509139010E942D1260933303DD
:1004F000709334038093350390933603C0900A01C0
:10050000D0900B01E0900C01F0900D01A701960135
:100510006091120170911301809114019091150165
:100520000E943D104B015C01A701960160911601EC
:100530007091170180911801909119010E943D104E
:100540002B013C01A701960160910E0170910F01F2
:1005500080911001909111010E943D109B01AC010E
:10056000C501B4010E942D129B01AC01C301B2016F
:100570000E94C10F2091390330913A0340913B030F
:1005800050913C030E942D126B017C01209133039A
:10059000309134034091350350913603C501B401C5
:1005A0000E942D129B01AC01C701B6010E94C20F2F
:1005B0005B016C01E0903A01F0903B0100913C013D
:1005C00010913D019701A8010E942912181694F07C
:1005D000E0903E01F0903F010091400110914101F7
:1005E0009701A801B501C6010E94391087FD02C01C
:1005F00075018601209142013091430140914401EF
:1006000050914501B701C8010E942D126B017C0178
:1006100020914A0130914B0140914C0150914D0184
:100620000E94291287FD09C0809026019090270121
:10063000A0902801B090290108C0809046019090B8
:100640004701A0904801B090490120E030E040E827
:1006500053E4C501B4010E94391087FF11C020E0A6
:1006600030E0A901C501B4010E94291287FD06C02E
:10067000C501B4010E94AA10698304C0198202C096
:100680008FEF898369818DE067DDE0912903F09127
:100690002A0320E030E040E251E4608171818281F0
:1006A00093810E94391087FF03C0E894F7F803C0D4
:1006B000C12CD12C760180912603909127030197BC
:1006C00009F044C0A0904E01B0904F01009150013C
:1006D000109151019501A801C701B6010E9429128C
:1006E000181694F0A0905201B0905301009154015B
:1006F000109155019501A801C701B6010E9439105A
:1007000087FD02C05601870120E030E040E853E455
:10071000B501C8010E94391087FF11C020E030E008
:10072000A901B501C8010E94291287FD06C0B501C3
:10073000C8010E94AA10698304C0198202C08FEF09
:100740008983698170E080911A010BD7E0912903B8
:10075000F0912A03209156013091570140915801A0
:100760005091590160817181828193810E94391079
:1007700087FF09C0C0905A01D0905B01E0905C01F6
:10078000F0905D0108C0C0905E01D0905F01E090E4
:100790006001F090610120E030E040E853E4C701DF
:1007A000B6010E94391087FF11C020E030E0A90196
:1007B000C701B6010E94291287FD06C0C701B60114
:1007C0000E94AA10698304C0198202C08FEF898336
:1007D000698188E0C1DC809126039091270301970D
:1007E000A9F4AA24A394B12C94E6C92E91E0D92EA1
:1007F000EE24E394F12C03E611E021E030E042E640
:1008000051E069E673E087E393E0E4D4A091260326
:10081000B0912703BD87AC87119709F084C1E0919F
:10082000B002F091B1020190F081E02D80819181C0
:10083000A281B3818E839F83A887B987809180022C
:1008400090918102A0918202B09183028E879F874E
:10085000A88BB98BE0918402F0918502C080D18091
:10086000E280F380E091B402F091B502A081B18101
:10087000BB83AA83E0917802F09179028081918113
:100880009D838C830281138124803580A681B7816A
:10089000BB87AA87E0917602F091770211821082DD
:1008A000EA81FB8180819181A281B381EC81FD810C
:1008B00080839183A283B383E091AE02F091AF0273
:1008C00011830083A0DC20E030E040E05FE3C7015B
:1008D000B6010E942D122B013C01D8012D913D91B2
:1008E0004D915C910E942D129B01AC01EC81FD8128
:1008F00060817181828193810E94C20FAA81BB8134
:100900006D937D938D939C931397E091B002F0913A
:10091000B102A080B180A30192016E817F818885A0
:1009200099850E94C20FF50160837183828393834E
:10093000E091AE02F091AF02318220829FDC63DC55
:1009400020E030E040E45FE3C701B6010E942D12D1
:100950004B015C0120E030E0A901C701B6010E9413
:100960002D12D8012D913D914D915C910E942D1237
:100970002B013C01F1012081318142815381C5016C
:10098000B4010E942D129B01AC01C301B2010E946F
:10099000C20F9B01AC01AC81BD816D917D918D91A8
:1009A0009C910E94C20FEA81FB81608371838283E4
:1009B0009383E091B002F091B10260807180A50153
:1009C00094016E817F81888599850E94C20FD30131
:1009D0006D937D938D939C931397E091AE02F0916C
:1009E000AF028A859B859183808348DC0CDC29E3F8
:1009F0003EE843E65EE3C701B6010E942D12D8012E
:100A00002D913D914D915C910E942D124B015C0105
:100A10002BEA3AEA4AEA5EE3C701B6010E942D12C8
:100A2000F10120813181428153810E942D129B016D
:100A3000AC01C501B4010E94C20F4B015C0129E366
:100A40003EE843EE5EE3C701B6010E942D12AA857F
:100A5000BB852D913D914D915C910E942D129B0182
:100A6000AC01C501B4010E94C20F9B01AC01EC8135
:100A7000FD8160817181828193810E94C20FAA8170
:100A8000BB816D937D938D939C931397E091B002FE
:100A9000F091B1020190F081E02D8E859F85A889AB
:100AA000B98980839183A283B383E0917602F09128
:100AB0007702AC85BD85B183A08380911A039091A4
:100AC0001B03A0911C03B0911D030196A11DB11D34
:100AD00080931A0390931B03A0931C03B0931D03F0
:100AE0008091800290918102A0918202B091830254
:100AF000E0912903F0912A0380839183A283B38339
:100B00008091220390912303A0912403B0912503A7
:100B10000196A11DB11D8093220390932303A093FE
:100B20002403B093250362960FB6F894DEBF0FBE80
:100B3000CDBFDF91CF911F910F91FF90EF90DF908C
:100B4000CF90BF90AF909F908F907F906F905F906D
:100B50004F903F902F900895CF92DF92EF92FF92A7
:100B6000CF93DF9384E090E05ED1E2E7F2E081ECA6
:100B7000DF011D928A95E9F786E293E09093770270
:100B800080937602A9E2B3E0B093B102A093B002E1
:100B9000CEE1D3E0D0938502C093840225EF32E00A
:100BA0003093AF022093AE022FEE32E03093B502C5
:100BB0002093B40244E153E05093B3024093B20255
:100BC00046E153E05093B7024093B60241EF52E042
:100BD0005093B9024093B80243EF52E05093BB02E6
:100BE0004093BA02F093DB02E093DA02F0937502CD
:100BF000E093740241E050E0FC01518340838CE0BB
:100C000093E04CEF52E0FC015183408340E053E01D
:100C100050930F0340930E0344E053E050931103AD
:100C20004093100348E053E05093130340931203A2
:100C300049E353E0F9015183408390937902809313
:100C400078028AE691E090937B0280937A028BE2AD
:100C500093E08D939C938AE097EDA3E2BCE38883B5
:100C60009983AA83BB8386E0A3E3B3E0FD011192DD
:100C70008A95E9F7DA011D921D921D921C92139735
:100C8000EDE3F3E08EE3DF011D928A95E9F7C12CD5
:100C9000D12C7601C394C082D182E282F382C482D5
:100CA000D582E682F782C086D186E286F386C48644
:100CB000D586E686F786C08AD18AE28AF38AC48A14
:100CC000D58AE68AF78AC08ED18EE28EF38EC48EE4
:100CD000D58EE68EF78EC0A2D1A2E2A2F3A280E06A
:100CE00090E0A0E8BFE38093650390936603A09330
:100CF0006703B0936803C0927303D0927403E092C9
:100D00007503F092760361E08DE01FDA61E0809177
:100D10001A01ADD4C0927703D0927803E0927903A0
:100D2000F0927A0361E088E010DA10926903109281
:100D30006A0310926B0310926C03109239031092A5
:100D40003A0310923B0310923C03DF91CF91FF9046
:100D5000EF90DF90CF90089580913D0390913E03F6
:100D6000A0913F03B09140030197A105B10561F443
:100D700082E090E0A0E0B0E080933D0390933E03DA
:100D8000A0933F03B0934003809173039091740349
:100D9000A0917503B09176030197A105B10561F4A7
:100DA00082E090E0A0E0B0E080937303909374033E
:100DB000A0937503B09376038091770390917803A5
:100DC000A0917903B0917A030197A105B10561F46F
:100DD00082E090E0A0E0B0E0809377039093780306
:100DE000A0937903B0937A03089560E070E080E8FF
:100DF0009FE7089560E070E080E89FE7089560E075
:100E000070E080E89FEF089560E070E080E89FEF79
:100E1000089560E070E080EC9FEF089560E070E07E
:100E200080EC9FEF0895F5DF60938703709388034C
:100E30008093890390938A03F1DF60937B0370931F
:100E40007C0380937D0390937E03CFDF60938303C5
:100E5000709384038093850390938603CBDF609324
:100E60007F03709380038093810390938203C7DF95
:100E700060938B0370938C0380938D0390938E0308
:100E8000C3DF60938F0370939003809391039093DB
:100E900092030895CF92DF92EF92FF92CF936B016E
:100EA0007C0120918303309184034091850350910C
:100EB00086030E943910882389F0C1E020918B03BA
:100EC00030918C0340918D0350918E03C701B60180
:100ED0000E9439108111C0E08C2F01C081E0CF91B8
:100EE000FF90EF90DF90CF900895CF93C1E09B01EA
:100EF000AC010E943910811101C0C0E08C2FCF914C
:100F0000089502978431910540F4FC01EF58FE4F9B
:100F10008081992787FD909508958FEF9FEF089521
:100F2000CF93DF93EC0160E070E06C177D070CF568
:100F3000882777FD8095982F0E94D81020E030E018
:100F4000A9010E94C20F20E030E0A9010E94C20F57
:100F500020E030E040E450E40E94C20F20E030E0A6
:100F600040E450E40E94C10F0E94A5106F5F7F4FC4
:100F7000DCCFDF91CF910895CF93DF9380919E01D5
:100F800090919F01E2D3EC018091A2019091A30185
:100F9000C7DF80919C0190919D01D7D3019739F4CF
:100FA0008091A0019091A101CD2B49F406C08091C0
:100FB000A0019091A101219711F4019601C0019720
:100FC0009093A1018093A001DF91CF910895CF93D9
:100FD000DF9380919C0190919D01B7D3EC018091AA
:100FE000A2019091A3019CDF80919E0190919F01AD
:100FF000ACD3019739F48091A0019091A101219780
:1010000049F406C08091A0019091A101CD2B11F46B
:10101000019601C001979093A1018093A001DF91F7
:10102000CF910895CF93DF938091A6019091A7016E
:101030008CD3EC018091AA019091AB0171DF80917A
:10104000A4019091A50181D3019739F48091A80161
:101050009091A901CD2B49F406C08091A8019091EF
:10106000A901219711F4019601C001979093A9015C
:101070008093A801DF91CF910895CF93DF93809162
:10108000A4019091A50161D3EC018091AA019091F6
:10109000AB0146DF8091A6019091A70156D301973D
:1010A00039F48091A8019091A901219749F406C0D3
:1010B0008091A8019091A901CD2B11F4019601C056
:1010C00001979093A9018093A801DF91CF91089592
:1010D000CF93DF938091AE019091AF0136D3EC01B5
:1010E0008091B2019091B3011BDF8091AC0190918E
:1010F000AD012BD3019739F48091B0019091B101EA
:10110000CD2B49F406C08091B0019091B101219797
:1011100011F4019601C001979093B1018093B00141
:10112000DF91CF910895CF93DF938091AC0190919F
:10113000AD010BD3EC018091B2019091B301F0DECF
:101140008091AE019091AF0100D3019739F4809165
:10115000B0019091B101219749F406C08091B0018E
:101160009091B101CD2B11F4019601C0019790939C
:10117000B1018093B001DF91CF9108950F931F9338
:10118000CF93DF938C01EA0120E030E040E85FE399
:10119000FB0160817181828193816BD7811115C0C0
:1011A000E88188E0E89FF0011124E456FE4F848135
:1011B0009581F80191838083E88188E0E89FF001C0
:1011C0001124E456FE4F15821482DF91CF911F91B6
:1011D0000F910895CF92DF92EF92FF920F931F939A
:1011E000CF93DF937B01EA0120E030E040E85FE34A
:1011F000DB016D917D918D919C913BD7882309F402
:1012000090C0E881D8018C9190E0B8E0EB9FF001AC
:101210001124E456FE4F91838083E881D6018C919E
:1012200090E0B8E0EB9FF0011124E456FE4F938369
:101230008283E88128E0E29FF0011124E456FE4F0A
:101240008081918160E013D2E88188E0E89FF0011D
:101250001124E456FE4F8281938160E008D2E88138
:10126000A8E0EA9FF0011124E456FE4F80819181AD
:1012700061E036D2E881B8E0EB9FF0011124E4563A
:10128000FE4F8281938161E02BD28881813061F1B0
:10129000B8F0823009F03CC08091AC019091AD0172
:1012A00030DE41E050E068E678E045D08091AE0164
:1012B0009091AF0126DE41E050E063E978E027C07D
:1012C00080919C0190919D011CDE41E050E06CEB0F
:1012D00077E031D080919E0190919F0112DE41E034
:1012E00050E067EE77E013C08091A4019091A501D2
:1012F00008DE41E050E062E178E01DD08091A60177
:101300009091A701FEDD41E050E06DE378E013D05D
:1013100080E090E0A0E8BFE3F70180839183A2839F
:10132000B383DF91CF911F910F91FF90EF90DF90EA
:10133000CF90089508958230E8F4E82FF0E0EE0FA2
:10134000FF1FEB59FE4F71836083813041F0809124
:1013500069008C7F842B80936900E89A08958091BE
:101360006900440F551F440F551F837F842B8093C2
:101370006900E99A08951F920F920FB60F921124F7
:101380002F933F934F935F936F937F938F939F938D
:10139000AF93BF93EF93FF93E0916501F0916601E6
:1013A0000995FF91EF91BF91AF919F918F917F919F
:1013B0006F915F914F913F912F910F900FBE0F90C2
:1013C0001F9018951F920F920FB60F9211242F9312
:1013D0003F934F935F936F937F938F939F93AF93BD
:1013E000BF93EF93FF93E0916701F0916801099536
:1013F000FF91EF91BF91AF919F918F917F916F91ED
:101400005F914F913F912F910F900FBE0F901F90C2
:1014100018951F920F920FB60F9211242F933F939E
:101420008F939F93AF93BF938091B5019091B60135
:10143000A091B701B091B8013091B40123E0230F1E
:101440002D3720F40196A11DB11D05C026E8230FFC
:101450000296A11DB11D2093B4018093B501909314
:10146000B601A093B701B093B8018091B9019091F2
:10147000BA01A091BB01B091BC010196A11DB11DA3
:101480008093B9019093BA01A093BB01B093BC01C2
:10149000BF91AF919F918F913F912F910F900FBE70
:1014A0000F901F9018953FB7F8948091B9019091D3
:1014B000BA01A091BB01B091BC0126B5A89B05C0A3
:1014C0002F3F19F00196A11DB11D3FBF6627782F50
:1014D000892F9A2F620F711D811D911D42E0660FA9
:1014E000771F881F991F4A95D1F70895789484B57E
:1014F000826084BD84B5816084BD85B5826085BD10
:1015000085B5816085BDEEE6F0E0808181608083F5
:10151000E1E8F0E0108280818260808380818160D8
:101520008083E0E8F0E0808181608083E1EBF0E09F
:10153000808184608083E0EBF0E080818160808343
:10154000EAE7F0E08081846080838081826080832C
:101550008081816080838081806880831092C10057
:1015600008951F93CF93DF93182FEB0161E07FD095
:10157000209711F460E004C0CF3FD10531F461E061
:10158000812FDF91CF911F91ABC0E12FF0E0E8599F
:10159000FF4FE491E330F9F048F4E130B9F0E23084
:1015A000A1F584B5806284BDC8BD34C0E730E9F0E0
:1015B000E83019F1E43049F5809180008062809331
:1015C0008000D0938B00C0938A0024C084B58068CB
:1015D00084BDC7BD1FC0809180008068809380005B
:1015E000D0938900C093880015C08091B0008068B6
:1015F0008093B000C093B3000DC08091B0008062B2
:101600008093B000C093B40005C0C038D1050CF081
:10161000B6CFB0CFDF91CF911F910895833081F085
:1016200028F4813099F08230A1F008958730A9F034
:101630008830B9F08430D1F4809180008F7D03C070
:10164000809180008F7780938000089584B58F7794
:1016500002C084B58F7D84BD08958091B0008F77DE
:1016600003C08091B0008F7D8093B0000895CF9328
:10167000DF9390E0FC01E458FF4F2491FC01E05718
:10168000FF4F8491882349F190E0880F991FFC0156
:10169000E854FF4FA591B49182559F4FFC01C5912D
:1016A000D4919FB7611108C0F8948C912095822342
:1016B0008C93888182230AC0623051F4F8948C9113
:1016C000322F309583238C938881822B888304C0AA
:1016D000F8948C91822B8C939FBFDF91CF910895CA
:1016E0000F931F93CF93DF931F92CDB7DEB7282FB1
:1016F00030E0F901E859FF4F8491F901E458FF4FB8
:101700001491F901E057FF4F04910023C1F08823A1
:1017100019F0698383DF6981E02FF0E0EE0FFF1F8E
:10172000E255FF4FA591B4919FB7F8948C91611148
:1017300003C01095812301C0812B8C939FBF0F9014
:10174000DF91CF911F910F910895CF93DF93282FB1
:1017500030E0F901E859FF4F8491F901E458FF4F57
:10176000D491F901E057FF4FC491CC2389F0811146
:1017700055DFEC2FF0E0EE0FFF1FEC55FF4FA5916A
:10178000B4912C912D2381E090E021F480E002C0FF
:1017900080E090E0DF91CF910895FC01818D228D52
:1017A00090E0805C9F4F821B91098F739927089569
:1017B000FC01918D828D981731F0828DE80FF11D1B
:1017C000858D90E008958FEF9FEF0895FC01918D36
:1017D000828D981761F0828DDF01A80FB11D5D9693
:1017E0008C91928D9F5F9F73928F90E008958FEF01
:1017F0009FEF0895FC01848DDF01A80FB11DA35A4E
:10180000BF4F2C91848D90E001968F739927848F20
:10181000A689B7892C93A089B1898C9180648C9317
:10182000938D848D981306C00288F389E02D808102
:101830008F7D80830895CF93DF93EC01888D88237B
:10184000C1F0EA89FB89808185FD05C0A889B98935
:101850008C9186FD0EC00FB607FCF5CF808185FF09
:10186000F2CFA889B9898C9185FFEDCFCE01C2DF77
:10187000E8CFDF91CF910895CF92DF92FF920F933F
:101880001F93CF93DF931F92CDB7DEB76C0181E03A
:10189000D60158968C9358975B969C915B975C9673
:1018A0008C915C97981307C05096ED91FC915197DD
:1018B000808185FD2DC0F601038D10E00F5F1F4F65
:1018C0000F731127F02EF601848DF81210C00FB699
:1018D00007FCF9CFD6015096ED91FC91519780818C
:1018E00085FFF1CFC601698385DF6981ECCF838DE8
:1018F000E80FF11DE35AFF4F6083D6015B960C930E
:101900005B975296ED91FC915397808180620CC059
:10191000D6015696ED91FC91579760835096ED91C4
:10192000FC91519780818064808381E090E00F90EA
:10193000DF91CF911F910F91FF90DF90CF9008958D
:10194000BF92CF92DF92EF92FF92CF93DF93EC01A1
:101950006A017B01B22EE889F98982E08083411512
:1019600081EE58076105710599F060E079E08DE33B
:1019700090E0A7019601D4D52150310941095109C0
:101980005695479537952795211580E1380790F0B2
:10199000E889F989108260E874E88EE190E0A70197
:1019A0009601BED5215031094109510956954795F7
:1019B00037952795EC85FD853083EE85FF8520835F
:1019C000188EEC89FD89B082EA89FB89808180616B
:1019D0008083EA89FB89808188608083EA89FB892A
:1019E000808180688083EA89FB8980818F7D808304
:1019F000DF91CF91FF90EF90DF90CF90BF9008954F
:101A00001F920F920FB60F9211242F938F939F93D3
:101A1000EF93FF93E091CD01F091CE018081E091B1
:101A2000D301F091D40182FD12C090818091D60142
:101A30008F5F8F732091D701821751F0E091D6010B
:101A4000F0E0E354FE4F958F8093D60101C0808172
:101A5000FF91EF919F918F912F910F900FBE0F905B
:101A60001F9018951F920F920FB60F9211242F936B
:101A70003F934F935F936F937F938F939F93AF9316
:101A8000BF93EF93FF938DEB91E0B4DEFF91EF9165
:101A9000BF91AF919F918F917F916F915F914F9186
:101AA0003F912F910F900FBE0F901F90189510929D
:101AB000C0011092BF0188EE93E0A0E0B0E08093F7
:101AC000C1019093C201A093C301B093C40189E8FE
:101AD00091E09093BE018093BD0185EC90E09093DE
:101AE000CA018093C90184EC90E09093CC0180936B
:101AF000CB0180EC90E09093CE018093CD0181ECFE
:101B000090E09093D0018093CF0182EC90E090938D
:101B1000D2018093D10186EC90E09093D401809320
:101B2000D3011092D6011092D7011092D8011092D1
:101B3000D9010895AF92BF92CF92DF92EF92FF92B8
:101B40000F931F93CF93DF936C017B01C0E0D0E034
:101B500000E010E0F601EC0FFD1F4AE050E062816A
:101B6000C701D6D05C016EE2C70168D08A0D9B1D0B
:101B7000080F191F2196C330D10561F74AE050E0E4
:101B8000F6016581C701C4D0800F911FDF91CF910D
:101B90001F910F91FF90EF90DF90CF90BF90AF908B
:101BA000089589E991E090935B0280935A02109224
:101BB0005C0210925D0210925E0210925F02089524
:101BC000CF92DF92EF92FF920F931F93CF93DF9309
:101BD0007C016A01EB0100E010E00C151D0571F0BD
:101BE0006991D701ED91FC910190F081E02DC70141
:101BF0000995892B19F00F5F1F4FEFCFC801DF91B7
:101C0000CF911F910F91FF90EF90DF90CF900895AB
:101C10006115710581F0DB010D900020E9F7AD0140
:101C200041505109461B570BDC01ED91FC9102809C
:101C3000F381E02D099480E090E00895DC01ED91BE
:101C4000FC910190F081E02D09948F929F92AF92C8
:101C5000BF92CF92DF92EF92FF920F931F93CF9399
:101C6000DF93CDB7DEB7A1970FB6F894DEBF0FBEF6
:101C7000CDBF7C01C42EE52FCB01D22E19A221E0CD
:101C80002D1510F02AE0D22E8E010F5D1F4F8D2CE6
:101C9000912CA12CB12C6C2D7E2FA501940140D448
:101CA0008C2DD29E80191124015011098A3014F410
:101CB000805D01C0895CF8018083211531054105F3
:101CC000510521F0C22EE32FCA01E5CFB801C701AB
:101CD0009FDFA1960FB6F894DEBF0FBECDBFDF9198
:101CE000CF911F910F91FF90EF90DF90CF90BF9019
:101CF000AF909F908F9008952115310541F4DC013C
:101D0000ED91FC910190F081E02D642F09949DCF1D
:101D10009A01462F50E060E070E0EECF813039F05C
:101D200018F0823051F0089510926E00089580915D
:101D30006F008D7F80936F000895809170008D7F7C
:101D40008093700081E08093B0008091B100887F23
:101D500084608093B1001092B3000895CF93C82F90
:101D6000809169018C1307C0E2ECF0E084919FEF51
:101D70009093690101C08FEFD1DF60E08C2FCF918C
:101D8000AFCC1F920F920FB60F9211242F933F9357
:101D90004F935F936F937F938F939F93AF93BF9373
:101DA000EF93FF938091630290916402A09165028A
:101DB000B0916602892B8A2B8B2B51F19091600296
:101DC000E0916102F0916202808189278083809195
:101DD000630290916402A0916502B09166021816A8
:101DE00019061A061B06BCF48091630290916402E6
:101DF000A0916502B09166020197A109B109809393
:101E0000630290936402A0936502B093660203C0DC
:101E100080916901A3DFFF91EF91BF91AF919F91F5
:101E20008F917F916F915F914F913F912F910F9083
:101E30000FBE0F901F90189540E052EC61E070E0EB
:101E400080E090E000C026E08DEB91E079CD089530
:101E5000CF92DF92EF92FF920F931F9324DB609358
:101E60006702709368028093690290936A020091FE
:101E70006B0210916C0220916D0230916E026B0129
:101E80007C01C01AD10AE20AF30A40E1C41647E213
:101E9000D406E104F10448F060936B0270936C0285
:101EA00080936D0290936E0208D081E01F910F9194
:101EB000FF90EF90DF90CF90089520916F0281E026
:101EC000820F80936F02222349F081E090E090938B
:101ED00071028093700220936F0208950E943E0168
:101EE00080916F02815080936F020895EF92FF926C
:101EF0000F931F93CF93DF931F92CDB7DEB781E08F
:101F00008983F4DA99DF00916F0110917001F80173
:101F1000118210820E94AC059ADFF80180819181C4
:101F2000892B29F481E0EA54FF4F9081911180E0E0
:101F3000898378947801F6EBEF0EF11C8981882370
:101F400099F0F80180819181892B21F481E0F701DA
:101F50009081911180E089838981882311F078DF55
:101F600001C080E08983EACF0E94AC06F89480E04B
:101F700090E00F90DF91CF911F910F91FF90EF9024
:101F800008955058BB27AA270ED012C203D230F0B2
:101F900008D220F031F49F3F11F41EF4F8C10EF482
:101FA000E095E7FBC5C1E92F14D280F3BA176207A9
:101FB00073078407950718F071F49EF543C20EF479
:101FC000E0950B2EBA2FA02D0B01B90190010C0149
:101FD000CA01A0011124FF27591B99F0593F50F461
:101FE000503E68F11A16F040A22F232F342F4427B9
:101FF000585FF3CF469537952795A795F0405395B1
:10200000C9F77EF41F16BA0B620B730B840BBAF080
:102010009150A1F0FF0FBB1F661F771F881FC2F7EB
:102020000EC0BA0F621F731F841F48F487957795FF
:102030006795B795F7959E3F08F0B3CF9395880FB6
:1020400008F09927EE0F979587950895E4D180F0D1
:102050009F3740F491110EF4F6C160E070E080E823
:102060009FE3089526F01B16611D711D811D66C139
:1020700080C13AD108F481E008950CD099C191D182
:1020800040F088D130F021F45F3F19F051C1511177
:10209000DAC17DC19ED198F39923C9F35523B1F3D9
:1020A000951B550BBB27AA2762177307840738F0C7
:1020B0009F5F5F4F220F331F441FAA1FA9F333D026
:1020C0000E2E3AF0E0E830D091505040E695001CDA
:1020D000CAF729D0FE2F27D0660F771F881FBB1F96
:1020E000261737074807AB07B0E809F0BB0B802D70
:1020F000BF01FF2793585F4F2AF09E3F510568F0BC
:1021000017C1A1C15F3FECF3983EDCF3869577954C
:102110006795B795F7959F5FC9F7880F911D9695BD
:10212000879597F90895E1E0660F771F881FBB1F19
:10213000621773078407BA0720F0621B730B840BC6
:10214000BA0BEE1F88F7E095089504D06894B1119A
:102150007AC1089546D188F09F5790F0B92F9927FA
:10216000B751A0F0D1F0660F771F881F991F1AF0A2
:10217000BA95C9F712C0B13081F064D1B1E00895C9
:1021800061C1672F782F8827B85F39F0B93FCCF34A
:10219000869577956795B395D9F73EF49095809598
:1021A000709561957F4F8F4F9F4F0895E89409C0B8
:1021B00097FB3EF490958095709561957F4F8F4F7A
:1021C0009F4F9923A9F0F92F96E9BB279395F69590
:1021D000879577956795B795F111F8CFFAF4BB0F0E
:1021E00011F460FF1BC06F5F7F4F8F4F9F4F16C072
:1021F000882311F096E911C0772321F09EE8872FFC
:10220000762F05C0662371F096E8862F70E060E0B7
:102210002AF09A95660F771F881FDAF7880F969530
:10222000879597F90895F7D080F09F3740F4911182
:102230000EF009C160E070E080E89FEB089526F49D
:102240001B16611D711D811D79C093C0A3D018F0AC
:1022500011F0A7D038F49BC0F6C0E92FBAD0B0F384
:102260005523C9F3E7FB6217730784079507A8F1A5
:1022700099F3E92FFF2788232AF03197660F771FFC
:10228000881FDAF7952F5527442332F0915050409C
:10229000220F331F441FD2F7BB27E91BF50B621B2C
:1022A000730B840BB109C1F222F4620F731F841FF8
:1022B000B11D31972AF0660F771F881FBB1FEFCF24
:1022C000915050405AF041F0882332F0660F771F4A
:1022D000881F91505040C1F793954BC086957795D4
:1022E00067959F5FD9F7F8CF990F0008550FAA0B94
:1022F000E0E8FEEF16161706E807F907C0F0121619
:102300001306E407F50798F0621B730B840B950B1B
:1023100039F40A2661F0232B242B252B21F4089570
:102320000A2609F4A140A6958FEF811D811D08950D
:1023300097F99F6780E870E060E00895882371F462
:10234000772321F09850872B762F07C0662311F44E
:1023500099270DC09051862B70E060E02AF09A9585
:10236000660F771F881FDAF7880F9695879597F97C
:1023700008959F3F31F0915020F4879577956795A8
:10238000B795880F911D9695879597F908959FEFBA
:1023900080EC089500240A941616170618060906FC
:1023A000089500240A9412161306140605060895CB
:1023B000092E0394000C11F4882352F0BB0F40F453
:1023C000BF2B11F460FF04C06F5F7F4F8F4F9F4F93
:1023D000089557FD9058440F551F59F05F3F71F015
:1023E0004795880F97FB991F61F09F3F79F087957C
:1023F0000895121613061406551FF2CF4695F1DF05
:1024000008C0161617061806991FF1CF8695710594
:10241000610508940895E5DFA0F0BEE7B91788F4D8
:10242000BB279F3860F41616B11D672F782F8827B9
:10243000985FF7CF869577956795B11D93959639F7
:10244000C8F30895E894BB2766277727CB0197F94F
:1024500008954ADF08F48FEF08950BD0A9CF9ADFD3
:1024600028F09FDF18F0952309F062CF90CF112458
:10247000EACFAFDFA0F3959FD1F3950F50E0551F42
:10248000629FF001729FBB27F00DB11D639FAA27C9
:10249000F00DB11DAA1F649F6627B00DA11D661F18
:1024A000829F2227B00DA11D621F739FB00DA11D39
:1024B000621F839FA00D611D221F749F3327A00DF3
:1024C000611D231F849F600D211D822F762F6A2F8F
:1024D00011249F5750408AF0E1F088234AF0EE0F14
:1024E000FF1FBB1F661F771F881F91505040A9F721
:1024F0009E3F510570F01CCFA6CF5F3FECF3983E96
:10250000DCF3869577956795B795F795E7959F5F87
:10251000C1F7FE2B880F911D9695879597F9089521
:10252000A1E21A2EAA1BBB1BFD010DC0AA1FBB1FD7
:10253000EE1FFF1FA217B307E407F50720F0A21B49
:10254000B30BE40BF50B661F771F881F991F1A94B6
:1025500069F760957095809590959B01AC01BD01E0
:10256000CF010895EE0FFF1F0590F491E02D09941F
:04257000F894FFCF0D
:10257400000093038000010000000000803F000081
:1025840000002FBA683D0000803F0B00000000806F
:10259400BB45000048450000803F000000000000EB
:1025A4000000000020420000D8410000404100002B
:1025B40040C10000AA41000000000000000000002B
:1025C4007F43000000000000000000000000000045
:1025D40000000002039A099A09FF6F6465330072D0
:1025E400020001FFFFFFFFFFFFFFFFFFFFFFFFFFF1
:1025F400FF05040302000000003C0CE00DCD0BE6D7
:0C2604000BD80B1B0C000000009A0D000E
:00000001FF
