:1000000063C000000C941F0A0C94460A85C00000CF
:1000100083C0000081C000007FC000000C94250F49
:100020007BC0000079C0000077C0000075C00000F0
:1000300073C0000071C000006FC000006DC0000000
:100040000C946D0A69C000000C94640D0C94960D1C
:1000500063C0000061C000005FC000005DC0000020
:100060005BC0000059C00000000000080002010051
:100070000003040700000000000000000102040863
:100080001020408001020408102001020408102002
:10009000040404040404040402020202020203032E
:1000A00003030303000000002300260029000000D2
:1000B0000000250028002B0000000000240027007D
:1000C0002A000200BB0D350E11241FBECFEFD8E071
:1000D000DEBFCDBF11E0A0E0B1E0ECE3F6E202C08C
:1000E00005900D92A83AB107D9F723E0A8EAB1E04C
:1000F00001C01D92A73AB207E1F710E0C8ECD0E0CA
:1001000004C02297FE010E941813C43CD107C9F70E
:100110000E94DA0F0C941C1373CFCA0130E0283010
:10012000310511F424E030E0E091C901F091CA01F9
:10013000289FA001299F500D389F500D1124028047
:10014000F381E02D89EC91E00994662311F061E0E0
:1001500001C060E00C949B0B662311F061E001C0CC
:1001600060E00C94D40BCF92DF92EF92FF926B0180
:100170007C019F7720E030E040E859E50E949D1027
:1001800087FF3AC020E030E040E05FE3C701B601FE
:100190000E948D1287FD0EC020E030E040E05FE35A
:1001A000C701B6010E942610FF90EF90DF90CF901C
:1001B0000C94771120E030E040E05FEBC701B6011E
:1001C0000E948D12181654F420E030E0A901C701F6
:1001D000B6010E9491126B017C010EC020E030E05C
:1001E00040E05FE3C701B6010E942510FF90EF9049
:1001F000DF90CF900C948A10C701B601FF90EF906A
:10020000DF90CF900895CF93DF93C0915103D091A9
:1002100052032091C0023091C1024091C20250911C
:10022000C30260913E0170913F0180914001909125
:1002300041010E94911220E030E0A9010E942610A5
:100240002091C4023091C5024091C6025091C7026C
:100250000E942610688379838A839B83DF91CF91E4
:1002600008952F923F924F925F926F927F928F925A
:100270009F92AF92BF92CF92DF92EF92FF920F9335
:100280001F93CF93DF93CDB7DEB762970FB6F89485
:10029000DEBF0FBECDBF809182039091830381307A
:1002A000910519F560917603709177038091780339
:1002B000909179036F5F7F4F8F4F9F4F0E943A114C
:1002C00020917A0330917B0340917C0350917D0310
:1002D0000E9491126093DC027093DD028093DE0233
:1002E0009093DF02E2E8F2E01BC0892B09F078C1AD
:1002F000E0910C03F0910D030190F081E02D8081DD
:100300009181A281B381E0918503F091860380837E
:100310009183A283B38364C182E0E23AF807B1F02B
:1003200081919191A191B1910197A105B105A1F39D
:10033000E2E8F2E081E090E0A0E0B0E08193919308
:10034000A193B19322E0E23AF207C1F76091AA02C9
:100350007091AB028091AC029091AD0204DF6B0111
:100360007C0127D681111FC0C701B601F7D58111C5
:100370001AC020E030E040E853E4C701B6010E9413
:1003800091116B017C015B01870120E030E0A90144
:100390000E949D1087FF0BC0C701B60190580E94B4
:1003A0000E11619508C0A12CB12C00E010E0B50140
:1003B000C8010E940E1169836091A6027091A70284
:1003C0008091A8029091A9020E940E11262F60919F
:1003D000A2027091A3028091A4029091A5022A8B9F
:1003E0000E940E11862F2A8941E050E0BE016F5F06
:1003F0007F4F93DEAA24A394B12C40E7C42E41E0A2
:10040000D42EEE24E394F12C0FE611E021E030E04D
:100410004EE651E06EEA72E08CEC92E013D7609108
:100420007E0370917F0380918003909181030E94ED
:100430003A112AE037ED43E25CE30E9491122091E9
:100440001E0130911F0140912001509121010E9415
:100450009D1087FF09C06091220170912301809156
:1004600024019091250108C0609126017091270117
:1004700080912801909129012091AA023091AB022C
:100480004091AC025091AD020E94251020912A01AA
:1004900030912B0140912C0150912D010E9491121D
:1004A0002B013C016091CC027091CD02882777FD31
:1004B0008095982F0E943C114B015C01C090320145
:1004C000D0903301E0903401F090350120912E015D
:1004D00030912F0140913001509131010E949112D1
:1004E000A70196010E94A1109B01AC01C301B201BA
:1004F0000E9425101B018C01CB01D8018093C402FE
:100500009093C502A093C602B093C70220E030E0EA
:10051000A901B101C8010E949D1087FD17C020E00C
:1005200030E0A901B101C8010E948D1218169CF09B
:1005300020E030E0A901B101C8010E949D108111A5
:100540000FC0B0E0A0E0F0E0E0E00EC0B0E0A0E05E
:10055000F0E8EFEB09C0B0E0A0E0F0E8EFE304C0A2
:10056000B22DA32DF02FE12F20910E0130910F011C
:1005700040911001509111016B2F7A2F8F2F9E2FD8
:100580000E9491122B013C0120910A0130910B0134
:1005900040910C0150910D01B101C8010E949112CE
:1005A0009B01AC01C301B2010E9426106093C802F6
:1005B0007093C9028093CA029093CB0220913601B6
:1005C000309137014091380150913901C501B40192
:1005D0000E949112A70196010E94A1104B015C019B
:1005E0002091C0023091C1024091C2025091C302D9
:1005F00060914201709143018091440190914501C5
:100600000E9491122091C8023091C9024091CA0201
:100610005091CB020E9426103B016C01E0904601F4
:10062000F090470100914801109149019701A801FC
:100630000E948D12181694F0E0904A01F0904B0140
:1006400000914C0110914D019701A801B301C60121
:100650000E949D1087FD02C07301860120914E010A
:1006600030914F014091500150915101B701C801A3
:100670000E9491126B017C0120915601309157012B
:1006800040915801509159010E948D1287FD09C077
:1006900040903A0150903B0160903C0170903D01C8
:1006A00008C04090520150905301609054017090E6
:1006B000550120E030E040E853E4C301B2010E945C
:1006C0009D1087FF11C020E030E0A901C301B201F5
:1006D0000E948D1287FD06C0C301B2010E940E1157
:1006E000698304C0198202C08FEF898369818DE01C
:1006F00033DDE0918503F091860320E030E040E2B5
:1007000051E460817181828193810E949D1087FFF5
:1007100003C0E894F7F803C0C12CD12C7601809176
:10072000820390918303019709F044C060905A01BD
:1007300070905B0100915C0110915D019301A80133
:10074000C701B6010E948D12181694F060905E01E8
:1007500070905F0100916001109161019301A80107
:10076000C701B6010E949D1087FD02C036018701B6
:1007700020E030E040E853E4B301C8010E949D103E
:1007800087FF11C020E030E0A901B301C8010E9439
:100790008D1287FD06C0B301C8010E940E11698346
:1007A00004C0198202C08FEF8983698170E0809153
:1007B00012013BD7E0918503F091860320916201FD
:1007C00030916301409164015091650160817181B4
:1007D000828193810E949D1087FF09C0C0906601AD
:1007E000D0906701E0906801F090690108C0C09066
:1007F0006A01D0906B01E0906C01F0906D0120E0F7
:1008000030E040E853E4C701B6010E949D1087FF25
:1008100011C020E030E0A901C701B6010E948D128D
:1008200087FD06C0C701B6010E940E11698304C08E
:10083000198202C08FEF8983698188E08DDC809105
:100840008203909183030197A9F5209116013091BD
:1008500017014091180150911901C501B4010E947E
:1008600091129B01AC016091AA027091AB02809140
:10087000AC029091AD020E9426106093AA02709380
:10088000AB028093AC029093AD02AA24A394B12C46
:1008900090E7C92E91E0D92EEE24E394F12C0FE6D7
:1008A00011E021E030E04EE651E06EEA72E08CECBF
:1008B00092E0F4D4A0918203B0918303BD87AC870A
:1008C000119709F084C1E0910C03F0910D030190A0
:1008D000F081E02D80819181A281B3818E839F83FD
:1008E000A887B9878091DC029091DD02A091DE0299
:1008F000B091DF028E879F87A88BB98BE091E002D1
:10090000F091E102C080D180E280F380E091100399
:10091000F0911103A081B181BB83AA83E091D4023D
:10092000F091D502808191819D838C830281138116
:1009300024803580A681B781BB87AA87E091D20247
:10094000F091D30211821082EA81FB818081918132
:10095000A281B381EC81FD8180839183A283B383E3
:10096000E0910A03F0910B03118300834CDC20E03B
:1009700030E040E05FE3C701B6010E9491122B0115
:100980003C01D8012D913D914D915C910E949112B5
:100990009B01AC01EC81FD81608171818281938139
:1009A0000E942610AA81BB816D937D938D939C93A9
:1009B0001397E0910C03F0910D03A080B180A30187
:1009C00092016E817F81888599850E942610F501AC
:1009D0006083718382839383E0910A03F0910B0318
:1009E000318220823EDC0FDC20E030E040E45FE337
:1009F000C701B6010E9491124B015C0120E030E07A
:100A0000A901C701B6010E949112D8012D913D9113
:100A10004D915C910E9491122B013C01F1012081CA
:100A2000318142815381C501B4010E9491129B0121
:100A3000AC01C301B2010E9426109B01AC01AC8144
:100A4000BD816D917D918D919C910E942610EA81CE
:100A5000FB816083718382839383E0910C03F09127
:100A60000D0360807180A50194016E817F8188856E
:100A700099850E942610D3016D937D938D939C934D
:100A80001397E0910A03F0910B038A859B8591836C
:100A90008083E7DBB8DB29E33EE843E65EE3C7019A
:100AA000B6010E949112D8012D913D914D915C911A
:100AB0000E9491124B015C012BEA3AEA4AEA5EE39A
:100AC000C701B6010E949112F1012081318142815A
:100AD00053810E9491129B01AC01C501B4010E9497
:100AE00026104B015C0129E33EE843EE5EE3C701BB
:100AF000B6010E949112AA85BB852D913D914D9121
:100B00005C910E9491129B01AC01C501B4010E944D
:100B100026109B01AC01EC81FD8160817181828195
:100B200093810E942610AA81BB816D937D938D9342
:100B30009C931397E0910C03F0910D030190F081C9
:100B4000E02D8E859F85A889B98980839183A283B2
:100B5000B383E091D202F091D302AC85BD85B1831D
:100B6000A0838091760390917703A0917803B09150
:100B700079030196A11DB11D8093760390937703AD
:100B8000A0937803B09379038091DC029091DD0209
:100B9000A091DE02B091DF02E0918503F09186031F
:100BA00080839183A283B38380917E0390917F039E
:100BB000A0918003B09181030196A11DB11D809386
:100BC0007E0390937F03A0938003B093810362968A
:100BD0000FB6F894DEBF0FBECDBFDF91CF911F914E
:100BE0000F91FF90EF90DF90CF90BF90AF909F90CC
:100BF0008F907F906F905F904F903F902F900895CF
:100C0000CF92DF92EF92FF92CF93DF9384E090E058
:100C10006ED1EEECF2E081ECDF011D928A95E9F7EE
:100C200082E893E09093D3028093D202A5E8B3E0E8
:100C3000B0930D03A0930C03CAE7D3E0D093E10275
:100C4000C093E00221E533E030930B0320930A03C5
:100C50002BE433E0309311032093100340E753E07B
:100C600050930F0340930E0342E753E05093130356
:100C7000409312034DE453E0509315034093140343
:100C80004FE453E05093170340931603F093370358
:100C9000E0933603F093D102E093D00241E050E0BC
:100CA000FC015183408388E693E048E553E0FC0172
:100CB000518340834CE553E050936B0340936A03A8
:100CC00040E653E050936D0340936C0344E653E0D9
:100CD00050936F0340936E0340EC52E0F90151834F
:100CE00040839093D5028093D40286E791E090935D
:100CF000D7028093D60287E893E08D939C938AE095
:100D000097EDA3E2BCE388839983AA83BB838AE03F
:100D1000A4ECB2E0FD0111928A95E9F7DA011D9287
:100D20001D921D921C921397EEE7F2E082E4DF0120
:100D30001D928A95E9F7C12CD12C7601C394C0820B
:100D4000D182E282F382C482D582E682F782C086B3
:100D5000D186E286F386C486D586E686F786C08A83
:100D6000D18AE28AF38AC48AD58AE68AF78AC08E53
:100D7000D18EE28EF38EC48ED58EE68EF78EC0A213
:100D8000D1A2E2A2F3A280E090E0A0E8BFE38093CA
:100D9000A6029093A702A093A802B093A902C092C2
:100DA000B802D092B902E092BA02F092BB0261E0BE
:100DB0008DE0CBD961E080911201BDD4C092BC021C
:100DC000D092BD02E092BE02F092BF0261E088E0E4
:100DD000BCD980911A0190911B01A0911C01B09186
:100DE0001D018093AA029093AB02A093AC02B09332
:100DF000AD021092AE021092AF021092B0021092A9
:100E0000B1021092C0021092C1021092C20210925E
:100E1000C302DF91CF91FF90EF90DF90CF900895C4
:100E200080917E0290917F02A0918002B091810218
:100E30000197A105B10561F482E090E0A0E0B0E087
:100E400080937E0290937F02A0938002B0938102F0
:100E50008091B8029091B902A091BA02B091BB0200
:100E60000197A105B10561F482E090E0A0E0B0E057
:100E70008093B8029093B902A093BA02B093BB02D8
:100E80008091BC029091BD02A091BE02B091BF02C0
:100E90000197A105B10561F482E090E0A0E0B0E027
:100EA0008093BC029093BD02A093BE02B093BF0298
:100EB000089560E070E080E89FE7089560E070E0EA
:100EC00080E89FE7089560E070E080E89FEF089574
:100ED00060E070E080E89FEF089560E070E080ECF3
:100EE0009FEF089560E070E080EC9FEF0895F5DFDC
:100EF00060939B0370939C0380939D0390939E0348
:100F0000F1DF60938F03709390038093910390932C
:100F10009203CFDF609397037093980380939903B4
:100F200090939A03CBDF6093930370939403809321
:100F3000950390939603C7DF60939F037093A0037C
:100F40008093A1039093A203C3DF6093A3037093E4
:100F5000A4038093A5039093A6030895CF92DF92F4
:100F6000EF92FF92CF936B017C0120919703309118
:100F700098034091990350919A030E949D108823F1
:100F800089F0C1E020919F033091A0034091A1031B
:100F90005091A203C701B6010E949D108111C0E0CB
:100FA0008C2F01C081E0CF91FF90EF90DF90CF9028
:100FB0000895CF93C1E09B01AC010E949D10811167
:100FC00001C0C0E08C2FCF91089502978431910524
:100FD00040F4FC01E358FE4F8081992787FD9095EE
:100FE00008958FEF9FEF0895CF93DF93EC0160E0BA
:100FF00070E06C177D070CF5882777FD8095982F9A
:101000000E943C1120E030E0A9010E94261020E05F
:1010100030E0A9010E94261020E030E040E450E4D6
:101020000E94261020E030E040E450E40E942510A9
:101030000E9409116F5F7F4FDCCFDF91CF91089540
:10104000CF93DF938091AA019091AB01E2D3EC01A1
:101050008091AE019091AF01C7DF8091A80190917E
:10106000A901D7D3019739F48091AC019091AD01DA
:10107000CD2B49F406C08091AC019091AD01219730
:1010800011F4019601C001979093AD018093AC01DA
:10109000DF91CF910895CF93DF938091A801909134
:1010A000A901B7D3EC018091AE019091AF019CDF13
:1010B0008091AA019091AB01ACD3019739F4809152
:1010C000AC019091AD01219749F406C08091AC012B
:1010D0009091AD01CD2B11F4019601C00197909331
:1010E000AD018093AC01DF91CF910895CF93DF9351
:1010F0008091B2019091B3018CD3EC018091B60143
:101100009091B70171DF8091B0019091B10181D3CD
:10111000019739F48091B4019091B501CD2B49F438
:1011200006C08091B4019091B501219711F4019608
:1011300001C001979093B5018093B401DF91CF91E5
:101140000895CF93DF938091B0019091B10161D365
:10115000EC018091B6019091B70146DF8091B20118
:101160009091B30156D3019739F48091B4019091D5
:10117000B501219749F406C08091B4019091B50161
:10118000CD2B11F4019601C001979093B501809386
:10119000B401DF91CF910895CF93DF938091BA018D
:1011A0009091BB0136D3EC018091BE019091BF01BB
:1011B0001BDF8091B8019091B9012BD3019739F4CD
:1011C0008091BC019091BD01CD2B49F406C0809166
:1011D000BC019091BD01219711F4019601C00197C6
:1011E0009093BD018093BC01DF91CF910895CF937F
:1011F000DF938091B8019091B9010BD3EC018091FC
:10120000BE019091BF01F0DE8091BA019091BB01C7
:1012100000D3019739F48091BC019091BD012197D1
:1012200049F406C08091BC019091BD01CD2B11F411
:10123000019601C001979093BD018093BC01DF919D
:10124000CF9108950F931F93CF93DF938C01EA0101
:1012500020E030E040E85FE3FB0160817181828142
:1012600093816BD7811115C0E88188E0E89FF00178
:101270001124E855FE4F84819581F8019183808384
:10128000E88188E0E89FF0011124E855FE4F1582BF
:101290001482DF91CF911F910F910895CF92DF9229
:1012A000EF92FF920F931F93CF93DF937B01EA019D
:1012B00020E030E040E85FE3DB016D917D918D91AE
:1012C0009C913BD7882309F490C0E881D8018C9188
:1012D00090E0B8E0EB9FF0011124E855FE4F9183B8
:1012E0008083E881D6018C9190E0B8E0EB9FF0011B
:1012F0001124E855FE4F93838283E88128E0E29F22
:10130000F0011124E855FE4F8081918160E013D2F5
:10131000E88188E0E89FF0011124E855FE4F8281C2
:10132000938160E008D2E881A8E0EA9FF0011124EF
:10133000E855FE4F8081918161E036D2E881B8E0C6
:10134000EB9FF0011124E855FE4F8281938161E00B
:101350002BD28881813061F1B8F0823009F03CC035
:101360008091B8019091B90130DE41E050E06CEC21
:1013700078E045D08091BA019091BB0126DE41E032
:1013800050E067EF78E027C08091A8019091A90113
:101390001CDE41E050E060E278E031D08091AA01AB
:1013A0009091AB0112DE41E050E06BE478E013C0B5
:1013B0008091B0019091B10108DE41E050E066E714
:1013C00078E01DD08091B2019091B301FEDD41E043
:1013D00050E061EA78E013D080E090E0A0E8BFE35D
:1013E000F70180839183A283B383DF91CF911F9113
:1013F0000F91FF90EF90DF90CF9008950895823085
:10140000E8F4E82FF0E0EE0FFF1FEF58FE4F718376
:101410006083813041F0809169008C7F842B8093C0
:101420006900E89A089580916900440F551F440FA0
:10143000551F837F842B80936900E99A08951F923A
:101440000F920FB60F9211242F933F934F935F93F8
:101450006F937F938F939F93AF93BF93EF93FF937C
:10146000E0917101F09172010995FF91EF91BF91A7
:10147000AF919F918F917F916F915F914F913F912C
:101480002F910F900FBE0F901F9018951F920F92E3
:101490000FB60F9211242F933F934F935F936F9347
:1014A0007F938F939F93AF93BF93EF93FF93E091BD
:1014B0007301F09174010995FF91EF91BF91AF9184
:1014C0009F918F917F916F915F914F913F912F915C
:1014D0000F900FBE0F901F9018951F920F920FB68E
:1014E0000F9211242F933F938F939F93AF93BF93AA
:1014F0008091C1019091C201A091C301B091C4013A
:101500003091C00123E0230F2D3720F40196A11D57
:10151000B11D05C026E8230F0296A11DB11D209321
:10152000C0018093C1019093C201A093C301B09305
:10153000C4018091C5019091C601A091C701B091ED
:10154000C8010196A11DB11D8093C5019093C601EC
:10155000A093C701B093C801BF91AF919F918F91A4
:101560003F912F910F900FBE0F901F9018953FB78E
:10157000F8948091C5019091C601A091C701B091E6
:10158000C80126B5A89B05C02F3F19F00196A11DE3
:10159000B11D3FBF6627782F892F9A2F620F711DCB
:1015A000811D911D42E0660F771F881F991F4A9584
:1015B000D1F70895789484B5826084BD84B5816044
:1015C00084BD85B5826085BD85B5816085BDEEE64B
:1015D000F0E0808181608083E1E8F0E0108280812A
:1015E00082608083808181608083E0E8F0E0808198
:1015F00081608083E1EBF0E0808184608083E0EBB8
:10160000F0E0808181608083EAE7F0E0808184609F
:1016100080838081826080838081816080838081FB
:10162000806880831092C10008951F93CF93DF9349
:10163000182FEB0161E07FD0209711F460E004C027
:10164000CF3FD10531F461E0812FDF91CF911F9120
:10165000ABC0E12FF0E0E859FF4FE491E330F9F03F
:1016600048F4E130B9F0E230A1F584B5806284BD80
:10167000C8BD34C0E730E9F0E83019F1E43049F58D
:1016800080918000806280938000D0938B00C09313
:101690008A0024C084B5806884BDC7BD1FC0809106
:1016A0008000806880938000D0938900C093880078
:1016B00015C08091B00080688093B000C093B300E3
:1016C0000DC08091B00080628093B000C093B400E0
:1016D00005C0C038D1050CF0B6CFB0CFDF91CF91A7
:1016E0001F910895833081F028F4813099F0823081
:1016F000A1F008958730A9F08830B9F08430D1F492
:10170000809180008F7D03C0809180008F778093CF
:101710008000089584B58F7702C084B58F7D84BD25
:1017200008958091B0008F7703C08091B0008F7DC5
:101730008093B0000895CF93DF9390E0FC01E458CC
:10174000FF4F2491FC01E057FF4F8491882349F11A
:1017500090E0880F991FFC01E854FF4FA591B491C8
:1017600082559F4FFC01C591D4919FB7611108C06C
:10177000F8948C91209582238C93888182230AC0CF
:10178000623051F4F8948C91322F309583238C93EE
:101790008881822B888304C0F8948C91822B8C934F
:1017A0009FBFDF91CF9108950F931F93CF93DF9346
:1017B0001F92CDB7DEB7282F30E0F901E859FF4F6F
:1017C0008491F901E458FF4F1491F901E057FF4F5C
:1017D00004910023C1F0882319F0698383DF6981B4
:1017E000E02FF0E0EE0FFF1FE255FF4FA591B491FF
:1017F0009FB7F8948C91611103C01095812301C0AB
:10180000812B8C939FBF0F90DF91CF911F910F91F0
:101810000895CF93DF93282F30E0F901E859FF4F67
:101820008491F901E458FF4FD491F901E057FF4F3B
:10183000C491CC2389F0811155DFEC2FF0E0EE0F3D
:10184000FF1FEC55FF4FA591B4912C912D2381E002
:1018500090E021F480E002C080E090E0DF91CF9141
:101860000895FC01818D228D90E0805C9F4F821B4A
:1018700091098F7399270895FC01918D828D981796
:1018800031F0828DE80FF11D858D90E008958FEF86
:101890009FEF0895FC01918D828D981761F0828DE4
:1018A000DF01A80FB11D5D968C91928D9F5F9F7394
:1018B000928F90E008958FEF9FEF0895FC01848D43
:1018C000DF01A80FB11DA35ABF4F2C91848D90E06A
:1018D00001968F739927848FA689B7892C93A08945
:1018E000B1898C9180648C93938D848D981306C0FC
:1018F0000288F389E02D80818F7D80830895CF93C6
:10190000DF93EC01888D8823C1F0EA89FB8980810F
:1019100085FD05C0A889B9898C9186FD0EC00FB6DA
:1019200007FCF5CF808185FFF2CFA889B9898C911A
:1019300085FFEDCFCE01C2DFE8CFDF91CF910895D3
:10194000CF92DF92FF920F931F93CF93DF931F925B
:10195000CDB7DEB76C0181E0D60158968C935897CD
:101960005B969C915B975C968C915C97981307C0F3
:101970005096ED91FC915197808185FD2DC0F60127
:10198000038D10E00F5F1F4F0F731127F02EF6012C
:10199000848DF81210C00FB607FCF9CFD60150960F
:1019A000ED91FC915197808185FFF1CFC60169834C
:1019B00085DF6981ECCF838DE80FF11DE35AFF4F7E
:1019C0006083D6015B960C935B975296ED91FC91E8
:1019D0005397808180620CC0D6015696ED91FC91A0
:1019E000579760835096ED91FC9151978081806468
:1019F000808381E090E00F90DF91CF911F910F9154
:101A0000FF90DF90CF900895BF92CF92DF92EF9238
:101A1000FF92CF93DF93EC016A017B01B22EE8893C
:101A2000F98982E08083411581EE580761057105CF
:101A300099F060E079E08DE390E0A7019601D4D5BC
:101A400021503109410951095695479537952795F8
:101A5000211580E1380790F0E889F989108260E863
:101A600074E88EE190E0A7019601BED521503109BE
:101A7000410951095695479537952795EC85FD8580
:101A80003083EE85FF852083188EEC89FD89B08236
:101A9000EA89FB89808180618083EA89FB89808172
:101AA00088608083EA89FB89808180688083EA89F5
:101AB000FB8980818F7D8083DF91CF91FF90EF90B4
:101AC000DF90CF90BF9008951F920F920FB60F92A4
:101AD00011242F938F939F93EF93FF93E091D9015C
:101AE000F091DA018081E091DF01F091E00182FD67
:101AF00012C090818091E2018F5F8F732091E3018A
:101B0000821751F0E091E201F0E0E753FE4F958F2C
:101B10008093E20101C08081FF91EF919F918F91AD
:101B20002F910F900FBE0F901F9018951F920F923C
:101B30000FB60F9211242F933F934F935F936F93A0
:101B40007F938F939F93AF93BF93EF93FF9389EC12
:101B500091E0B4DEFF91EF91BF91AF919F918F9192
:101B60007F916F915F914F913F912F910F900FBE99
:101B70000F901F9018951092CC011092CB0188EE17
:101B800093E0A0E0B0E08093CD019093CE01A093CC
:101B9000CF01B093D00185E991E09093CA01809381
:101BA000C90185EC90E09093D6018093D50184EC37
:101BB00090E09093D8018093D70180EC90E09093CF
:101BC000DA018093D90181EC90E09093DC0180935D
:101BD000DB0182EC90E09093DE018093DD0186ECE6
:101BE00090E09093E0018093DF011092E201109267
:101BF000E3011092E4011092E5010895AF92BF92C3
:101C0000CF92DF92EF92FF920F931F93CF93DF93C8
:101C10006C017B01C0E0D0E000E010E0F601EC0FC9
:101C2000FD1F4AE050E06281C701D6D05C016EE240
:101C3000C70168D08A0D9B1D080F191F2196C3305C
:101C4000D10561F74AE050E0F6016581C701C4D0D3
:101C5000800F911FDF91CF911F910F91FF90EF9017
:101C6000DF90CF90BF90AF90089585EA91E0909378
:101C700067028093660210926802109269021092C5
:101C80006A0210926B020895CF92DF92EF92FF9258
:101C90000F931F93CF93DF937C016A01EB0100E068
:101CA00010E00C151D0571F06991D701ED91FC91C3
:101CB0000190F081E02DC7010995892B19F00F5F84
:101CC0001F4FEFCFC801DF91CF911F910F91FF9070
:101CD000EF90DF90CF9008956115710581F0DB01E1
:101CE0000D900020E9F7AD0141505109461B570BFB
:101CF000DC01ED91FC910280F381E02D099480E0FC
:101D000090E00895DC01ED91FC910190F081E02DCF
:101D100009948F929F92AF92BF92CF92DF92EF92EF
:101D2000FF920F931F93CF93DF93CDB7DEB7A197A9
:101D30000FB6F894DEBF0FBECDBF7C01C42EE52FD9
:101D4000CB01D22E19A221E02D1510F02AE0D22EBF
:101D50008E010F5D1F4F8D2C912CA12CB12C6C2D61
:101D60007E2FA501940140D48C2DD29E8019112480
:101D7000015011098A3014F4805D01C0895CF801BA
:101D80008083211531054105510521F0C22EE32F35
:101D9000CA01E5CFB801C7019FDFA1960FB6F8943D
:101DA000DEBF0FBECDBFDF91CF911F910F91FF908E
:101DB000EF90DF90CF90BF90AF909F908F9008955D
:101DC0002115310541F4DC01ED91FC910190F08188
:101DD000E02D642F09949DCF9A01462F50E060E0DA
:101DE00070E0EECF813039F018F0823051F0089574
:101DF00010926E00089580916F008D7F80936F0028
:101E00000895809170008D7F8093700081E08093B1
:101E1000B0008091B100887F84608093B1001092FF
:101E2000B3000895CF93C82F809175018C1307C01C
:101E3000E2ECF0E084919FEF9093750101C08FEF89
:101E4000D1DF60E08C2FCF91AFCC1F920F920FB6F5
:101E50000F9211242F933F934F935F936F937F9330
:101E60008F939F93AF93BF93EF93FF9380916F02F4
:101E700090917002A0917102B0917202892B8A2B0D
:101E80008B2B51F190916C02E0916D02F0916E02FA
:101E900080818927808380916F0290917002A09148
:101EA0007102B0917202181619061A061B06BCF4CC
:101EB00080916F0290917002A0917102B0917202B4
:101EC0000197A109B10980936F0290937002A093CA
:101ED0007102B093720203C080917501A3DFFF917C
:101EE000EF91BF91AF919F918F917F916F915F9192
:101EF0004F913F912F910F900FBE0F901F9018950B
:101F000040E052EC61E070E080E090E000C026E04C
:101F100089EC91E079CD0895CF92DF92EF92FF9214
:101F20000F931F9324DB609373027093740280936A
:101F300075029093760200917702109178022091B9
:101F4000790230917A026B017C01C01AD10AE20A4F
:101F5000F30A40E1C41647E2D406E104F10448F074
:101F600060937702709378028093790290937A025B
:101F700008D081E01F910F91FF90EF90DF90CF90FC
:101F8000089520917B0281E0820F80937B022223BF
:101F900049F081E090E090937D0280937C02209351
:101FA0007B0208950E94310180917B0281508093D1
:101FB0007B020895EF92FF920F931F93CF93DF93CD
:101FC0001F92CDB7DEB781E08983F4DA99DF009103
:101FD0007B0110917C01F801118210820E940006A1
:101FE0009ADFF80180819181892B29F481E0EA54FC
:101FF000FF4F9081911180E0898378947801F6EB0E
:10200000EF0EF11C8981882399F0F801808191817C
:10201000892B21F481E0F7019081911180E089837F
:102020008981882311F078DF01C080E08983EACFBD
:102030000E941007F89480E090E00F90DF91CF911C
:102040001F910F91FF90EF9008955058BB27AA273A
:102050000ED012C203D230F008D220F031F49F3FEC
:1020600011F41EF4F8C10EF4E095E7FBC5C1E92FA9
:1020700014D280F3BA17620773078407950718F024
:1020800071F49EF543C20EF4E0950B2EBA2FA02DED
:102090000B01B90190010C01CA01A0011124FF2715
:1020A000591B99F0593F50F4503E68F11A16F04010
:1020B000A22F232F342F4427585FF3CF469537950F
:1020C0002795A795F0405395C9F77EF41F16BA0BD4
:1020D000620B730B840BBAF09150A1F0FF0FBB1F82
:1020E000661F771F881FC2F70EC0BA0F621F731FCB
:1020F000841F48F4879577956795B795F7959E3F28
:1021000008F0B3CF9395880F08F09927EE0F9795B5
:1021100087950895E4D180F09F3740F491110EF433
:10212000F6C160E070E080E89FE3089526F01B169A
:10213000611D711D811D66C180C13AD108F481E025
:1021400008950CD099C191D140F088D130F021F49C
:102150005F3F19F051C15111DAC17DC19ED198F391
:102160009923C9F35523B1F3951B550BBB27AA2718
:1021700062177307840738F09F5F5F4F220F331F8A
:10218000441FAA1FA9F333D00E2E3AF0E0E830D056
:1021900091505040E695001CCAF729D0FE2F27D059
:1021A000660F771F881FBB1F261737074807AB0727
:1021B000B0E809F0BB0B802DBF01FF2793585F4F9C
:1021C0002AF09E3F510568F017C1A1C15F3FECF3B3
:1021D000983EDCF3869577956795B795F7959F5F61
:1021E000C9F7880F911D9695879597F90895E1E0B5
:1021F000660F771F881FBB1F621773078407BA0714
:1022000020F0621B730B840BBA0BEE1F88F7E0956E
:10221000089504D06894B1117AC1089546D188F028
:102220009F5790F0B92F9927B751A0F0D1F0660FC2
:10223000771F881F991F1AF0BA95C9F712C0B130DD
:1022400081F064D1B1E0089561C1672F782F8827AC
:10225000B85F39F0B93FCCF3869577956795B3951C
:10226000D9F73EF490958095709561957F4F8F4F8B
:102270009F4F0895E89409C097FB3EF49095809590
:10228000709561957F4F8F4F9F4F9923A9F0F92F3C
:1022900096E9BB279395F695879577956795B795BA
:1022A000F111F8CFFAF4BB0F11F460FF1BC06F5FA0
:1022B0007F4F8F4F9F4F16C0882311F096E911C0B2
:1022C000772321F09EE8872F762F05C0662371F0D3
:1022D00096E8862F70E060E02AF09A95660F771FE7
:1022E000881FDAF7880F9695879597F90895F7D0A4
:1022F00080F09F3740F491110EF009C160E070E06A
:1023000080E89FEB089526F41B16611D711D811D49
:1023100079C093C0A3D018F011F0A7D038F49BC0B7
:10232000F6C0E92FBAD0B0F35523C9F3E7FB621723
:10233000730784079507A8F199F3E92FFF278823EE
:102340002AF03197660F771F881FDAF7952F5527E8
:10235000442332F091505040220F331F441FD2F7D4
:10236000BB27E91BF50B621B730B840BB109C1F290
:1023700022F4620F731F841FB11D31972AF0660F7C
:10238000771F881FBB1FEFCF915050405AF041F08C
:10239000882332F0660F771F881F91505040C1F795
:1023A00093954BC08695779567959F5FD9F7F8CF42
:1023B000990F0008550FAA0BE0E8FEEF1616170656
:1023C000E807F907C0F012161306E407F50798F0BE
:1023D000621B730B840B950B39F40A2661F0232BD7
:1023E000242B252B21F408950A2609F4A140A69553
:1023F0008FEF811D811D089597F99F6780E870E038
:1024000060E00895882371F4772321F09850872B9A
:10241000762F07C0662311F499270DC09051862BA3
:1024200070E060E02AF09A95660F771F881FDAF750
:10243000880F9695879597F908959F3F31F09150B1
:1024400020F4879577956795B795880F911D969598
:10245000879597F908959FEF80EC089500240A94DA
:102460001616170618060906089500240A9412166F
:102470001306140605060895092E0394000C11F4A2
:10248000882352F0BB0F40F4BF2B11F460FF04C04F
:102490006F5F7F4F8F4F9F4F089557FD9058440FA8
:1024A000551F59F05F3F71F04795880F97FB991FB3
:1024B00061F09F3F79F08795089512161306140670
:1024C000551FF2CF4695F1DF08C0161617061806FD
:1024D000991FF1CF86957105610508940895E5DF90
:1024E000A0F0BEE7B91788F4BB279F3860F4161632
:1024F000B11D672F782F8827985FF7CF869577953E
:102500006795B11D93959639C8F30895E894BB2754
:1025100066277727CB0197F908954ADF08F48FEFF4
:1025200008950BD0A9CF9ADF28F09FDF18F09523EC
:1025300009F062CF90CF1124EACFAFDFA0F3959FCF
:10254000D1F3950F50E0551F629FF001729FBB279A
:10255000F00DB11D639FAA27F00DB11DAA1F649F46
:102560006627B00DA11D661F829F2227B00DA11DF9
:10257000621F739FB00DA11D621F839FA00D611D7F
:10258000221F749F3327A00D611D231F849F600DA0
:10259000211D822F762F6A2F11249F5750408AF0D9
:1025A000E1F088234AF0EE0FFF1FBB1F661F771F65
:1025B000881F91505040A9F79E3F510570F01CCFE5
:1025C000A6CF5F3FECF3983EDCF386957795679551
:1025D000B795F795E7959F5FC1F7FE2B880F911D83
:1025E0009695879597F90895A1E21A2EAA1BBB1B11
:1025F000FD010DC0AA1FBB1FEE1FFF1FA217B307CF
:10260000E407F50720F0A21BB30BE40BF50B661FE4
:10261000771F881F991F1A9469F7609570958095A8
:1026200090959B01AC01BD01CF010895EE0FFF1FF6
:0C2630000590F491E02D0994F894FFCF80
:10263C000000A70380000100000000000000000063
:10264C0000400B0000000AD7233C000000000000F3
:10265C000000000000000000B442000000400080B8
:10266C00BB450000484500A00C470000803F00001F
:10267C00A0C10000004000004041000040C100002B
:10268C00AA41000000000000000000007F43000091
:10269C00000000000000000000000000000000022C
:1026AC0003FE09FE09FF6F64653300CE020001FFD3
:1026BC00FFFFFFFFFFFFFFFFFFFFFFFFFF0504030F
:1026CC000200000000A00C440E310C4A0C3C0C7FA4
:0826DC000C00000000FE0D00DF
:00000001FF
