:1000000063C00000FCC6000021C7000085C00000DE
:1000100083C0000081C000007FC000000C94050C6C
:100020007BC0000079C0000077C0000075C00000F0
:1000300073C0000071C000006FC000006DC0000000
:100040002CC7000069C000000C94440A0C94760A86
:1000500063C0000061C000005FC000005DC0000020
:100060005BC0000059C00000000000080002010051
:100070000003040700000000000000000102040863
:100080001020408001020408102001020408102002
:10009000040404040404040402020202020203032E
:1000A00003030303000000002300260029000000D2
:1000B0000000250028002B0000000000240027007D
:1000C0002A0002009B0A150B11241FBECFEFD8E0B7
:1000D000DEBFCDBF11E0A0E0B1E0EEEDFFE102C078
:1000E00005900D92A439B107D9F723E0A4E9B1E056
:1000F00001C01D92A735B207E1F710E0C8ECD0E0CF
:1001000004C02297FE010E94E90FC43CD107C9F741
:100110000E94BA0C0C94ED0F73CFCA0130E0283066
:10012000310511F424E030E0E091B501F091B60121
:10013000289FA001299F500D389F500D1124028047
:10014000F381E02D85EB91E00994662311F061E0E5
:1001500001C060E0D0C7662311F061E001C060E03B
:100160000C94B408CF92DF92EF92FF926B017C0166
:100170009F7720E030E040E859E50E946E0D87FF50
:100180003AC020E030E040E05FE3C701B6010E94E2
:100190005E0F87FD0EC020E030E040E05FE3C70166
:1001A000B6010E94F70CFF90EF90DF90CF900C9477
:1001B000480E20E030E040E05FEBC701B6010E944E
:1001C0005E0F181654F420E030E0A901C701B60113
:1001D0000E94620F6B017C010EC020E030E040E025
:1001E0005FE3C701B6010E94F60CFF90EF90DF902D
:1001F000CF900C945B0DC701B601FF90EF90DF909C
:10020000CF9008958F929F92AF92BF92CF92DF923C
:10021000EF92FF920F931F93CF93DF9300D0CDB750
:10022000DEB7AA24A394B12C40E5C42E41E0D42E1D
:10023000EE24E394F12C0FE411E021E030E04EE4F1
:1002400051E06DE273E08AE692E0DCD4E5E0F3E0B1
:1002500081919191A191B1910197A105B10599F178
:10026000E5E0F3E081E090E0A0E0B0E081939193DD
:10027000A193B19323E0E532F207C1F760916A02DE
:1002800070916B02882777FD8095982F0E940D0E44
:1002900020911601309117014091180150911901D8
:1002A0000E94620F20911A0130911B0140911C01A4
:1002B00050911D010E94720D55DF6B017C015AD3D4
:1002C000811126C006C083E0E532F80709F0C0CFEF
:1002D000D5CFC701B60123D381111AC020E030E089
:1002E00040E853E4C701B6010E94620E6B017C0135
:1002F0005B01870120E030E0A9010E946E0D87FFBD
:100300000BC0C701B60190580E94DF0D619508C06F
:10031000A12CB12C00E010E0B501C8010E94DF0D56
:1003200069836091290370912A0380912B03909136
:100330002C030E94DF0D262F609125037091260368
:1003400080912703909128032A830E94DF0D862F36
:100350002A8141E050E0BE016F5F7F4FDEDE609199
:10036000F1027091F2028091F3029091F4020E94E6
:100370000B0E2AE037ED43E25CE30E94620F20910E
:100380001E0130911F0140912001509121010E94D6
:100390006E0D87FF09C0A0902201B0902301C0908C
:1003A0002401D090250108C0A0902601B09027011B
:1003B000C0902801D0902901E0902A01F0902B01F3
:1003C00000912C0110912D019701A801B501C601E2
:1003D0000E945E0F181694F0E0902E01F0902F010D
:1003E00000913001109131019701A801B501C601BA
:1003F0000E946E0D87FD02C07501860120913201B9
:10040000309133014091340150913501B701C80159
:100410000E94620F6B017C012091360130913701FF
:1004200040913801509139010E945E0F87FD09C04B
:100430008090120190901301A0901401B0901501CA
:1004400008C080900E0190900F01A0901001B09014
:10045000110120E030E040E853E4C501B4010E94FE
:100460006E0D87FF11C020E030E0A901C501B40185
:100470000E945E0F87FD06C0C501B4010E94DF0D1A
:10048000698304C0198202C08FEF898369818DE07E
:1004900062DEE091F702F091F80220E030E040E205
:1004A00051E460817181828193810E946E0D87FF8A
:1004B00003C0E894F7F803C0C12CD12C7601A090BA
:1004C0003A01B0903B0100913C0110913D01950132
:1004D000A801C701B6010E945E0F181694F0A09003
:1004E0003E01B0903F010091400110914101950102
:1004F000A801C701B6010E946E0D87FD02C056011A
:10050000870120E030E040E853E4B501C8010E94D3
:100510006E0D87FF11C020E030E0A901B501C801D0
:100520000E945E0F87FD06C0B501C8010E94DF0D65
:10053000698304C0198202C08FEF8983698170E0EA
:1005400080910A0152D5E091F702F091F8022091D2
:100550004201309143014091440150914501608135
:100560007181828193810E946E0D87FF09C0C090C6
:100570004601D0904701E0904801F090490108C041
:10058000C0904A01D0904B01E0904C01F0904D0199
:1005900020E030E040E853E4C701B6010E946E0D50
:1005A00087FF11C020E030E0A901C701B6010E9419
:1005B0005E0F87FD06C0C701B6010E94DF0D69838B
:1005C00004C0198202C08FEF8983698188E0C3DD8E
:1005D000AA24A394B12C90E5C92E91E0D92EEE2443
:1005E000E394F12C0FE411E021E030E04EE451E01F
:1005F0006DE273E08AE692E031D30091F702109148
:10060000F8026091E9027091EA028091EB02909108
:10061000EC026F5F7F4F8F4F9F4F6093E9027093A3
:10062000EA028093EB029093EC020E940B0E209161
:10063000ED023091EE024091EF025091F0020E94E3
:10064000620FF80160837183828393838091F1024A
:100650009091F202A091F302B091F4020196A11DD3
:10066000B11D8093F1029093F202A093F302B09334
:10067000F4020F900F90DF91CF911F910F91FF9097
:10068000EF90DF90CF90BF90AF909F908F900895A4
:10069000CF92DF92EF92FF92CF93DF9384E090E0CE
:1006A00007D1ECE6F2E085E9DF011D928A95E9F7D2
:1006B00085EF92E09093710280937002A7EFB2E011
:1006C000B093AB02A093AA02CDEED2E0D0937F020A
:1006D000C0937E02F093D502E093D402F0936F02B0
:1006E000E0936E0221E030E0FC013183208386E557
:1006F00091E0909375028093740289EF92E08D935C
:100700009C938AE097EDA3E2BCE388839983AA8354
:10071000BB8310926B0210926A02E1E0F3E08EE379
:10072000DF011D928A95E9F7C12CD12C7601C39483
:10073000C082D182E282F382C482D582E682F782CD
:10074000C086D186E286F386C486D586E686F7869D
:10075000C08AD18AE28AF38AC48AD58AE68AF78A6D
:10076000C08ED18EE28EF38EC48ED58EE68EF78E3D
:10077000C0A2D1A2E2A2F3A280E090E0A0E8BFE391
:100780008093290390932A03A0932B03B0932C0307
:10079000C0923703D0923803E0923903F0923A03C3
:1007A00061E08DE0D2DC61E080910A01A4D4C092C6
:1007B0003B03D0923C03E0923D03F0923E0361E0A4
:1007C00088E0C3DC10922D0310922E0310922F03A9
:1007D00010923003DF91CF91FF90EF90DF90CF9098
:1007E00008958091010390910203A0910303B091B9
:1007F00004030197A105B10561F482E090E0A0E057
:10080000B0E08093010390930203A0930303B0939D
:1008100004038091370390913803A0913903B0917C
:100820003A030197A105B10561F482E090E0A0E0F0
:10083000B0E08093370390933803A0933903B093CB
:100840003A0380913B0390913C03A0913D03B0910A
:100850003E030197A105B10561F482E090E0A0E0BC
:10086000B0E080933B0390933C03A0933D03B0938F
:100870003E03089560E070E080E89FE7089560E03F
:1008800070E080E89FE7089560E070E080E89FEF07
:10089000089560E070E080E89FEF089560E070E008
:1008A00080EC9FEF089560E070E080EC9FEF08958A
:1008B000F5DF60934B0370934C0380934D0390934B
:1008C0004E03F1DF60933F03709340038093410335
:1008D00090934203CFDF6093470370934803809364
:1008E000490390934A03CBDF60934303709344031F
:1008F0008093450390934603C7DF60934F03709343
:1009000050038093510390935203C3DF60935303CA
:100910007093540380935503909356030895CF9298
:10092000DF92EF92FF92CF936B017C0120914703FE
:10093000309148034091490350914A030E946E0D43
:10094000882389F0C1E020914F03309150034091FA
:10095000510350915203C701B6010E946E0D8111DF
:10096000C0E08C2F01C081E0CF91FF90EF90DF902D
:10097000CF900895CF93C1E09B01AC010E946E0D12
:10098000811101C0C0E08C2FCF910895029784316E
:10099000910540F4FC01E659FE4F8081992787FDBF
:1009A000909508958FEF9FEF0895CF93DF93EC011B
:1009B00060E070E06C177D0704F5882777FD80956F
:1009C000982F0E940D0E20E030E0A9010E94F70C44
:1009D00020E030E0A9010E94F70C20E030E040E484
:1009E00050E40E94F70C20E030E040E450E4FED7F1
:1009F0000E94DA0D6F5F7F4FDDCFDF91CF910895B9
:100A0000CF93DF938091960190919701E2D3EC010F
:100A100080919A0190919B01C8DF809194019091FF
:100A20009501D7D3019739F480919801909199015C
:100A3000CD2B49F406C0809198019091990121979E
:100A400011F4019601C00197909399018093980148
:100A5000DF91CF910895CF93DF938091940190918E
:100A60009501B7D3EC0180919A0190919B019DDF94
:100A70008091960190919701ACD3019739F48091C0
:100A8000980190919901219749F406C080919801AD
:100A900090919901CD2B11F4019601C0019790938B
:100AA000990180939801DF91CF910895CF93DF93BF
:100AB00080919E0190919F018CD3EC018091A201C5
:100AC0009091A30172DF80919C0190919D0181D34F
:100AD000019739F48091A0019091A101CD2B49F4A7
:100AE00006C08091A0019091A101219711F4019677
:100AF00001C001979093A1018093A001DF91CF9154
:100B00000895CF93DF9380919C0190919D0161D3D3
:100B1000EC018091A2019091A30147DF80919E0199
:100B200090919F0156D3019739F48091A001909143
:100B3000A101219749F406C08091A0019091A101E3
:100B4000CD2B11F4019601C001979093A1018093E0
:100B5000A001DF91CF910895CF93DF938091A601FB
:100B60009091A70136D3EC018091AA019091AB013D
:100B70001CDF8091A4019091A5012BD3019739F43A
:100B80008091A8019091A901CD2B49F406C08091D4
:100B9000A8019091A901219711F4019601C0019734
:100BA0009093A9018093A801DF91CF910895CF93ED
:100BB000DF938091A4019091A5010BD3EC0180916A
:100BC000AA019091AB01F1DE8091A6019091A7015D
:100BD00000D3019739F48091A8019091A901219740
:100BE00049F406C08091A8019091A901CD2B11F480
:100BF000019601C001979093A9018093A801DF910C
:100C0000CF9108950F931F93CF93DF938C01EA0147
:100C100020E030E040E85FE3FB0160817181828188
:100C200093815CD7811115C0E88188E0E89FF001CD
:100C30001124EC56FE4F84819581F80191838083C5
:100C4000E88188E0E89FF0011124EC56FE4F158200
:100C50001482DF91CF911F910F910895CF92DF926F
:100C6000EF92FF920F931F93CF93DF937B01EA01E3
:100C700020E030E040E85FE3DB016D917D918D91F4
:100C80009C912CD7882309F490C0E881D8018C91DD
:100C900090E0B8E0EB9FF0011124EC56FE4F9183F9
:100CA0008083E881D6018C9190E0B8E0EB9FF00161
:100CB0001124EC56FE4F93838283E88128E0E29F63
:100CC000F0011124EC56FE4F8081918160E013D237
:100CD000E88188E0E89FF0011124EC56FE4F828104
:100CE000938160E008D2E881A8E0EA9FF001112436
:100CF000EC56FE4F8081918161E036D2E881B8E008
:100D0000EB9FF0011124EC56FE4F8281938161E04C
:100D10002BD28881813061F1B8F0823009F03CC07B
:100D20008091A4019091A50131DE41E050E06CEA90
:100D300075E045D08091A6019091A70127DE41E0A2
:100D400050E067ED75E027C0809194019091950186
:100D50001DDE41E050E060E075E031D08091960109
:100D60009091970113DE41E050E06BE275E013C013
:100D700080919C0190919D0109DE41E050E066E583
:100D800075E01DD080919E0190919F01FFDD41E0B3
:100D900050E061E875E013D080E090E0A0E8BFE3A8
:100DA000F70180839183A283B383DF91CF911F9159
:100DB0000F91FF90EF90DF90CF90089508958230CB
:100DC000E8F4E82FF0E0EE0FFF1FEF5AFE4F7183BB
:100DD0006083813041F0809169008C7F842B809307
:100DE0006900E89A089580916900440F551F440FE7
:100DF000551F837F842B80936900E99A08951F9281
:100E00000F920FB60F9211242F933F934F935F933E
:100E10006F937F938F939F93AF93BF93EF93FF93C2
:100E2000E0915101F09152010995FF91EF91BF912D
:100E3000AF919F918F917F916F915F914F913F9172
:100E40002F910F900FBE0F901F9018951F920F9229
:100E50000FB60F9211242F933F934F935F936F938D
:100E60007F938F939F93AF93BF93EF93FF93E09103
:100E70005301F09154010995FF91EF91BF91AF910A
:100E80009F918F917F916F915F914F913F912F91A2
:100E90000F900FBE0F901F9018951F920F920FB6D4
:100EA0000F9211242F933F938F939F93AF93BF93F0
:100EB0008091AD019091AE01A091AF01B091B001D0
:100EC0003091AC0123E0230F2D3720F40196A11DB2
:100ED000B11D05C026E8230F0296A11DB11D209368
:100EE000AC018093AD019093AE01A093AF01B0939C
:100EF000B0018091B1019091B201A091B301B09184
:100F0000B4010196A11DB11D8093B1019093B2016E
:100F1000A093B301B093B401BF91AF919F918F9112
:100F20003F912F910F900FBE0F901F9018953FB7D4
:100F3000F8948091B1019091B201A091B301B09168
:100F4000B40126B5A89B05C02F3F19F00196A11D3D
:100F5000B11D3FBF6627782F892F9A2F620F711D11
:100F6000811D911D42E0660F771F881F991F4A95CA
:100F7000D1F70895789484B5826084BD84B581608A
:100F800084BD85B5826085BD85B5816085BDEEE691
:100F9000F0E0808181608083E1E8F0E01082808170
:100FA00082608083808181608083E0E8F0E08081DE
:100FB00081608083E1EBF0E0808184608083E0EBFE
:100FC000F0E0808181608083EAE7F0E080818460E6
:100FD0008083808182608083808181608083808142
:100FE000806880831092C10008951F93CF93DF9390
:100FF000182FEB0161E07FD0209711F460E004C06E
:10100000CF3FD10531F461E0812FDF91CF911F9166
:10101000ABC0E12FF0E0E859FF4FE491E330F9F085
:1010200048F4E130B9F0E230A1F584B5806284BDC6
:10103000C8BD34C0E730E9F0E83019F1E43049F5D3
:1010400080918000806280938000D0938B00C09359
:101050008A0024C084B5806884BDC7BD1FC080914C
:101060008000806880938000D0938900C0938800BE
:1010700015C08091B00080688093B000C093B30029
:101080000DC08091B00080628093B000C093B40026
:1010900005C0C038D1050CF0B6CFB0CFDF91CF91ED
:1010A0001F910895833081F028F4813099F08230C7
:1010B000A1F008958730A9F08830B9F08430D1F4D8
:1010C000809180008F7D03C0809180008F77809316
:1010D0008000089584B58F7702C084B58F7D84BD6C
:1010E00008958091B0008F7703C08091B0008F7D0C
:1010F0008093B0000895CF93DF9390E0FC01E45813
:10110000FF4F2491FC01E057FF4F8491882349F160
:1011100090E0880F991FFC01E854FF4FA591B4910E
:1011200082559F4FFC01C591D4919FB7611108C0B2
:10113000F8948C91209582238C93888182230AC015
:10114000623051F4F8948C91322F309583238C9334
:101150008881822B888304C0F8948C91822B8C9395
:101160009FBFDF91CF9108950F931F93CF93DF938C
:101170001F92CDB7DEB7282F30E0F901E859FF4FB5
:101180008491F901E458FF4F1491F901E057FF4FA2
:1011900004910023C1F0882319F0698383DF6981FA
:1011A000E02FF0E0EE0FFF1FE255FF4FA591B49145
:1011B0009FB7F8948C91611103C01095812301C0F1
:1011C000812B8C939FBF0F90DF91CF911F910F9137
:1011D0000895CF93DF93282F30E0F901E859FF4FAE
:1011E0008491F901E458FF4FD491F901E057FF4F82
:1011F000C491CC2389F0811155DFEC2FF0E0EE0F84
:10120000FF1FEC55FF4FA591B4912C912D2381E048
:1012100090E021F480E002C080E090E0DF91CF9187
:101220000895FC01818D228D90E0805C9F4F821B90
:1012300091098F7399270895FC01918D828D9817DC
:1012400031F0828DE80FF11D858D90E008958FEFCC
:101250009FEF0895FC01918D828D981761F0828D2A
:10126000DF01A80FB11D5D968C91928D9F5F9F73DA
:10127000928F90E008958FEF9FEF0895FC01848D89
:10128000DF01A80FB11DA35ABF4F2C91848D90E0B0
:1012900001968F739927848FA689B7892C93A0898B
:1012A000B1898C9180648C93938D848D981306C042
:1012B0000288F389E02D80818F7D80830895CF930C
:1012C000DF93EC01888D8823C1F0EA89FB89808156
:1012D00085FD05C0A889B9898C9186FD0EC00FB621
:1012E00007FCF5CF808185FFF2CFA889B9898C9161
:1012F00085FFEDCFCE01C2DFE8CFDF91CF9108951A
:10130000CF92DF92FF920F931F93CF93DF931F92A1
:10131000CDB7DEB76C0181E0D60158968C93589713
:101320005B969C915B975C968C915C97981307C039
:101330005096ED91FC915197808185FD2DC0F6016D
:10134000038D10E00F5F1F4F0F731127F02EF60172
:10135000848DF81210C00FB607FCF9CFD601509655
:10136000ED91FC915197808185FFF1CFC601698392
:1013700085DF6981ECCF838DE80FF11DE35AFF4FC4
:101380006083D6015B960C935B975296ED91FC912E
:101390005397808180620CC0D6015696ED91FC91E6
:1013A000579760835096ED91FC91519780818064AE
:1013B000808381E090E00F90DF91CF911F910F919A
:1013C000FF90DF90CF900895BF92CF92DF92EF927F
:1013D000FF92CF93DF93EC016A017B01B22EE88983
:1013E000F98982E08083411581EE58076105710516
:1013F00099F060E079E08DE390E0A7019601C5D512
:10140000215031094109510956954795379527953E
:10141000211580E1380790F0E889F989108260E8A9
:1014200074E88EE190E0A7019601AFD52150310913
:10143000410951095695479537952795EC85FD85C6
:101440003083EE85FF852083188EEC89FD89B0827C
:10145000EA89FB89808180618083EA89FB898081B8
:1014600088608083EA89FB89808180688083EA893B
:10147000FB8980818F7D8083DF91CF91FF90EF90FA
:10148000DF90CF90BF9008951F920F920FB60F92EA
:1014900011242F938F939F93EF93FF93E091C501B6
:1014A000F091C6018081E091CB01F091CC0182FDE9
:1014B00012C090818091CE018F5F8F732091CF01F8
:1014C000821751F0E091CE01F0E0EB54FE4F958F82
:1014D0008093CE0101C08081FF91EF919F918F9108
:1014E0002F910F900FBE0F901F9018951F920F9283
:1014F0000FB60F9211242F933F934F935F936F93E7
:101500007F938F939F93AF93BF93EF93FF9385EB5D
:1015100091E0B4DEFF91EF91BF91AF919F918F91D8
:101520007F916F915F914F913F912F910F900FBEDF
:101530000F901F9018951092B8011092B70188EE85
:1015400093E0A0E0B0E08093B9019093BA01A0933A
:10155000BB01B093BC0182E891E09093B601809307
:10156000B50185EC90E09093C2018093C10184ECB9
:1015700090E09093C4018093C30180EC90E090933D
:10158000C6018093C50181EC90E09093C8018093DF
:10159000C70182EC90E09093CA018093C90186EC68
:1015A00090E09093CC018093CB011092CE011092E9
:1015B000CF011092D0011092D1010895AF92BF9245
:1015C000CF92DF92EF92FF920F931F93CF93DF930F
:1015D0006C017B01C0E0D0E000E010E0F601EC0F10
:1015E000FD1F4AE050E06281C701D6D05C016EE287
:1015F000C70168D08A0D9B1D080F191F2196C330A3
:10160000D10561F74AE050E0F6016581C701C4D019
:10161000800F911FDF91CF911F910F91FF90EF905D
:10162000DF90CF90BF90AF90089582E991E09093C2
:10163000530280935202109254021092550210925B
:101640005602109257020895CF92DF92EF92FF92C6
:101650000F931F93CF93DF937C016A01EB0100E0AE
:1016600010E00C151D0571F06991D701ED91FC9109
:101670000190F081E02DC7010995892B19F00F5FCA
:101680001F4FEFCFC801DF91CF911F910F91FF90B6
:10169000EF90DF90CF9008956115710581F0DB0127
:1016A0000D900020E9F7AD0141505109461B570B41
:1016B000DC01ED91FC910280F381E02D099480E042
:1016C00090E00895DC01ED91FC910190F081E02D16
:1016D00009948F929F92AF92BF92CF92DF92EF9236
:1016E000FF920F931F93CF93DF93CDB7DEB7A197F0
:1016F0000FB6F894DEBF0FBECDBF7C01C42EE52F20
:10170000CB01D22E19A221E02D1510F02AE0D22E05
:101710008E010F5D1F4F8D2C912CA12CB12C6C2DA7
:101720007E2FA501940131D48C2DD29E80191124D5
:10173000015011098A3014F4805D01C0895CF80100
:101740008083211531054105510521F0C22EE32F7B
:10175000CA01E5CFB801C7019FDFA1960FB6F89483
:10176000DEBF0FBECDBFDF91CF911F910F91FF90D4
:10177000EF90DF90CF90BF90AF909F908F900895A3
:101780002115310541F4DC01ED91FC910190F081CE
:10179000E02D642F09949DCF9A01462F50E060E020
:1017A00070E0EECF813039F018F0823051F00895BA
:1017B00010926E00089580916F008D7F80936F006E
:1017C0000895809170008D7F8093700081E08093F8
:1017D000B0008091B100887F84608093B100109246
:1017E000B3000895CF93C82F809155018C1307C083
:1017F000E2ECF0E084919FEF9093550101C08FEFF0
:10180000D1DF60E08C2FCF91AFCC1F920F920FB63B
:101810000F9211242F933F934F935F936F937F9376
:101820008F939F93AF93BF93EF93FF9380915B024E
:1018300090915C02A0915D02B0915E02892B8A2B8F
:101840008B2B51F190915802E0915902F0915A027C
:1018500080818927808380915B0290915C02A091B6
:101860005D02B0915E02181619061A061B06BCF43A
:1018700080915B0290915C02A0915D02B0915E024A
:101880000197A109B10980935B0290935C02A09338
:101890005D02B0935E0203C080915501A3DFFF910A
:1018A000EF91BF91AF919F918F917F916F915F91D8
:1018B0004F913F912F910F900FBE0F901F90189551
:1018C00040E052EC61E070E080E090E000C026E093
:1018D00085EB91E079CD0895CF92DF92EF92FF9260
:1018E0000F931F9324DB60935F02709360028093D9
:1018F0006102909362020091630210916402209150
:101900006502309166026B017C01C01AD10AE20ABD
:10191000F30A40E1C41647E2D406E104F10448F0BA
:1019200060936302709364028093650290936602F1
:1019300008D081E01F910F91FF90EF90DF90CF9042
:1019400008952091670281E0820F8093670222232D
:1019500049F081E090E090936902809368022093BF
:10196000670208950E94020180916702815080936E
:10197000670208950F931F93CF93DF931F92CDB704
:10198000DEB781E08983F6DA9BDF00916801109170
:101990006901F801118210820E9448039CDF21E056
:1019A000F80180819181892B09F020E029837894C6
:1019B0008981882381F021E0F80180819181892B40
:1019C00009F020E029838981882311F085DF01C097
:1019D00080E08983EDCF0E94F103F89480E090E0ED
:1019E0000F90DF91CF911F910F9108955058BB2711
:1019F000AA270ED012C203D230F008D220F031F460
:101A00009F3F11F41EF4F8C10EF4E095E7FBC5C149
:101A1000E92F14D280F3BA1762077307840795077A
:101A200018F071F49EF543C20EF4E0950B2EBA2F18
:101A3000A02D0B01B90190010C01CA01A0011124D4
:101A4000FF27591B99F0593F50F4503E68F11A1680
:101A5000F040A22F232F342F4427585FF3CF469511
:101A600037952795A795F0405395C9F77EF41F1633
:101A7000BA0B620B730B840BBAF09150A1F0FF0FFD
:101A8000BB1F661F771F881FC2F70EC0BA0F621FE9
:101A9000731F841F48F4879577956795B795F795D9
:101AA0009E3F08F0B3CF9395880F08F09927EE0F6B
:101AB000979587950895E4D180F09F3740F4911170
:101AC0000EF4F6C160E070E080E89FE3089526F030
:101AD0001B16611D711D811D66C180C13AD108F4BC
:101AE00081E008950CD099C191D140F088D130F0B7
:101AF00021F45F3F19F051C15111DAC17DC19ED16E
:101B000098F39923C9F35523B1F3951B550BBB27C4
:101B1000AA2762177307840738F09F5F5F4F220F71
:101B2000331F441FAA1FA9F333D00E2E3AF0E0E86A
:101B300030D091505040E695001CCAF729D0FE2FB6
:101B400027D0660F771F881FBB1F26173707480748
:101B5000AB07B0E809F0BB0B802DBF01FF279358FE
:101B60005F4F2AF09E3F510568F017C1A1C15F3F4A
:101B7000ECF3983EDCF3869577956795B795F795E6
:101B80009F5FC9F7880F911D9695879597F90895DE
:101B9000E1E0660F771F881FBB1F6217730784077A
:101BA000BA0720F0621B730B840BBA0BEE1F88F789
:101BB000E095089504D06894B1117AC1089546D192
:101BC00088F09F5790F0B92F9927B751A0F0D1F026
:101BD000660F771F881F991F1AF0BA95C9F712C0B0
:101BE000B13081F064D1B1E0089561C1672F782FE1
:101BF0008827B85F39F0B93FCCF38695779567951C
:101C0000B395D9F73EF490958095709561957F4F87
:101C10008F4F9F4F0895E89409C097FB3EF490952D
:101C20008095709561957F4F8F4F9F4F9923A9F0B5
:101C3000F92F96E9BB279395F69587957795679544
:101C4000B795F111F8CFFAF4BB0F11F460FF1BC088
:101C50006F5F7F4F8F4F9F4F16C0882311F096E91B
:101C600011C0772321F09EE8872F762F05C06623C9
:101C700071F096E8862F70E060E02AF09A95660F82
:101C8000771F881FDAF7880F9695879597F908953B
:101C9000F7D080F09F3740F491110EF009C160E059
:101CA00070E080E89FEB089526F41B16611D711DFE
:101CB000811D79C093C0A3D018F011F0A7D038F4DB
:101CC0009BC0F6C0E92FBAD0B0F35523C9F3E7FBA8
:101CD0006217730784079507A8F199F3E92FFF2787
:101CE00088232AF03197660F771F881FDAF7952F20
:101CF0005527442332F091505040220F331F441F88
:101D0000D2F7BB27E91BF50B621B730B840BB109E0
:101D1000C1F222F4620F731F841FB11D31972AF0A4
:101D2000660F771F881FBB1FEFCF915050405AF0AE
:101D300041F0882332F0660F771F881F9150504082
:101D4000C1F793954BC08695779567959F5FD9F7B7
:101D5000F8CF990F0008550FAA0BE0E8FEEF161612
:101D60001706E807F907C0F012161306E407F5078F
:101D700098F0621B730B840B950B39F40A2661F003
:101D8000232B242B252B21F408950A2609F4A140A6
:101D9000A6958FEF811D811D089597F99F6780E8B3
:101DA00070E060E00895882371F4772321F0985063
:101DB000872B762F07C0662311F499270DC0905109
:101DC000862B70E060E02AF09A95660F771F881FD7
:101DD000DAF7880F9695879597F908959F3F31F028
:101DE000915020F4879577956795B795880F911D49
:101DF0009695879597F908959FEF80EC08950024B4
:101E00000A941616170618060906089500240A945F
:101E100012161306140605060895092E0394000CE5
:101E200011F4882352F0BB0F40F4BF2B11F460FF74
:101E300004C06F5F7F4F8F4F9F4F089557FD90589D
:101E4000440F551F59F05F3F71F04795880F97FB7E
:101E5000991F61F09F3F79F0879508951216130638
:101E60001406551FF2CF4695F1DF08C01616170667
:101E70001806991FF1CF869571056105089408959C
:101E8000E5DFA0F0BEE7B91788F4BB279F3860F400
:101E90001616B11D672F782F8827985FF7CF869584
:101EA00077956795B11D93959639C8F30895E89491
:101EB000BB2766277727CB0197F908954ADF08F4F7
:101EC0008FEF08950BD0A9CF9ADF28F09FDF18F08D
:101ED000952309F062CF90CF1124EACFAFDFA0F3B2
:101EE000959FD1F3950F50E0551F629FF001729FAF
:101EF000BB27F00DB11D639FAA27F00DB11DAA1FCE
:101F0000649F6627B00DA11D661F829F2227B00D1A
:101F1000A11D621F739FB00DA11D621F839FA00DA5
:101F2000611D221F749F3327A00D611D231F849FF5
:101F3000600D211D822F762F6A2F11249F5750404C
:101F40008AF0E1F088234AF0EE0FFF1FBB1F661FE7
:101F5000771F881F91505040A9F79E3F510570F0A0
:101F60001CCFA6CF5F3FECF3983EDCF386957795C8
:101F70006795B795F795E7959F5FC1F7FE2B880F9B
:101F8000911D9695879597F90895A1E21A2EAA1B9F
:101F9000BB1BFD010DC0AA1FBB1FEE1FFF1FA21719
:101FA000B307E407F50720F0A21BB30BE40BF50B16
:101FB000661F771F881F991F1A9469F7609570959F
:101FC000809590959B01AC01BD01CF010895EE0F66
:0E1FD000FF1F0590F491E02D0994F894FFCFC7
:101FDE00000057038000010000000B00000000000D
:101FEE0000000000803F0080BB4500004845000017
:101FFE000000000000000000A04000004041000072
:10200E0040C10000AA410000000000007F43000014
:10201E0000000000000000000000000000000002B0
:10202E0003DE06DE06FF4669786564537465704408
:10203E0069736372657465006C020001FFFFFFFF38
:10204E00FFFFFFFFFFFFFFFFFFFF0504030200007E
:10205E0000008009240B11092A091C095F090000E0
:04206E000000DE0A86
:00000001FF
