:1000000063C000000C9476090C949D0985C0000023
:1000100083C0000081C000007FC000000C94590E16
:100020007BC0000079C0000077C0000075C00000F0
:1000300073C000000C94BF0E6FC000006DC00000C4
:100040000C94C40969C000000C94980C0C94CA0C60
:1000500063C0000061C000005FC000005DC0000020
:100060005BC0000059C00000000000080002010051
:100070000003040700000000000000000102040863
:100080001020408001020408102001020408102002
:10009000040404040404040402020202020203032E
:1000A00003030303000000002300260029000000D2
:1000B0000000250028002B0000000000240027007D
:1000C0002A000200EF0C690D11241FBECFEFD8E00B
:1000D000DEBFCDBF11E0A0E0B1E0E2EDF4E202C08E
:1000E00005900D92A439B107D9F723E0A4E9B1E056
:1000F00001C01D92A338B207E1F710E0C8ECD0E0D0
:1001000004C02297FE010E946312C43CD107C9F7C4
:100110000E94240F0C94671273CFCA0130E028307C
:10012000310511F424E030E0E091B501F091B60121
:10013000289FA001299F500D389F500D1124028047
:10014000F381E02D85EB91E00994662311F061E0E5
:1001500001C060E00C94CF0A662311F061E001C099
:1001600060E00C94080BCF92DF92EF92FF926B014C
:100170007C019F7720E030E040E859E50E94E80FDD
:1001800087FF3AC020E030E040E05FE3C701B601FE
:100190000E94D81187FD0EC020E030E040E05FE310
:1001A000C701B6010E94710FFF90EF90DF90CF90D2
:1001B0000C94C21020E030E040E05FEBC701B601D4
:1001C0000E94D811181654F420E030E0A901C701AC
:1001D000B6010E94DC116B017C010EC020E030E012
:1001E00040E05FE3C701B6010E94700FFF90EF90FF
:1001F000DF90CF900C94D50FC701B601FF90EF9020
:10020000DF90CF900895CF93DF93C0912303D091D7
:100210002403209167033091680340916903509152
:100220006A036091260170912701809128019091C5
:1002300029010E94DC1120E030E0A9010E94710F29
:1002400020916103309162034091630350916403F4
:100250000E94710F688379838A839B83DF91CF919A
:1002600008952F923F924F925F926F927F928F925A
:100270009F92AF92BF92CF92DF92EF92FF920F9335
:100280001F93CF93DF93CDB7DEB762970FB6F89485
:10029000DEBF0FBECDBF80915403909155038130D6
:1002A000910509F04CC06091480370914903809119
:1002B0004A0390914B036F5F7F4F8F4F9F4F0E9478
:1002C000851020914C0330914D0340914E03509185
:1002D0004F030E94DC116093AE027093AF028093D3
:1002E000B0029093B102AA24A394B12C4CE5C42E81
:1002F00041E0D42EEE24E394F12C0BE511E021E053
:1003000030E04AE551E06EE872E085E693E0F1D630
:10031000C0900E01D0900F01E0901001F0901101FB
:1003200060916503709166038090120190901301B3
:10033000A0901401B0901501E6E6F2E01BC0892BF5
:1003400009F0C5C0E091DE02F091DF020190F0817A
:10035000E02D80819181A281B381E0915703F091DA
:10036000580380839183A283B383B1C082E0E638CF
:10037000F807B1F081919191A191B1910197A105F7
:10038000B105A1F3E6E6F2E081E090E0A0E0B0E0A4
:1003900081939193A193B19322E0E638F207C1F7DC
:1003A000882777FD8095982F0E9487109B01AC01CC
:1003B000C701B6010E94DC11A50194010E94EC0F57
:1003C0004B015C01D0DE6B017C014AD581111FC05D
:1003D000C701B6011AD581111AC020E030E040E80B
:1003E00053E4C701B6010E94DC106B017C013B01A4
:1003F000870120E030E0A9010E94E80F87FF0BC0D1
:10040000C701B60190580E945910619508C0612C2F
:10041000712C00E010E0B301C8010E9459106983FB
:1004200060918A0270918B0280918C0290918D0272
:100430000E945910262F6091860270918702809148
:100440008802909189022A8B0E945910862F2A894E
:1004500041E050E0BE016F5F7F4F5FDE609150036F
:100460007091510380915203909153030E94851023
:100470002AE037ED43E25CE30E94DC1120911A018F
:1004800030911B0140911C0150911D010E94E80F09
:1004900087FF09C060911E0170911F0180912001AA
:1004A0009091210108C060912201709123018091F7
:1004B000240190912501A50194010E94700F609381
:1004C00061037093620380936303909364032091AC
:1004D0006703309168034091690350916A0360910A
:1004E0002A0170912B0180912C0190912D010E9485
:1004F000DC116B017C01209161033091620340911A
:1005000063035091640360912E0170912F018091DB
:100510003001909131010E94DC119B01AC01C701B7
:10052000B6010E94710F5B016C01E0903201F09006
:10053000330100913401109135019701A8010E9407
:10054000D811181694F0E0903601F0903701009120
:100550003801109139019701A801B501C6010E9427
:10056000E80F87FD02C07501860120913A013091A4
:100570003B0140913C0150913D01B701C8010E94EF
:10058000DC116B017C0120914201309143014091CB
:100590004401509145010E94D81187FD09C0809007
:1005A000160190901701A0901801B090190108C091
:1005B00080903E0190903F01A0904001B090410199
:1005C00020E030E040E853E4C501B4010E94E80FA8
:1005D00087FF11C020E030E0A901C501B4010E94ED
:1005E000D81187FD06C0C501B4010E945910698366
:1005F00004C0198202C08FEF898369818DE0ACDD70
:10060000E0915703F091580320E030E040E251E4DC
:1006100060817181828193810E94E80F87FF03C00E
:10062000E894F7F803C0C12CD12C760180915403D3
:1006300090915503019709F044C0A0904601B090F5
:10064000470100914801109149019501A801C70196
:10065000B6010E94D811181694F0A0904A01B090EB
:100660004B0100914C0110914D019501A801C7016A
:10067000B6010E94E80F87FD02C05601870120E005
:1006800030E040E853E4B501C8010E94E80F87FF5D
:1006900011C020E030E0A901B501C8010E94D811C5
:1006A00087FD06C0B501C8010E945910698304C0C6
:1006B000198202C08FEF8983698170E080910A01FD
:1006C000E8D6E0915703F091580320914E01309104
:1006D0004F0140915001509151016081718182819F
:1006E00093810E94E80F87FF09C0C0905201D0900B
:1006F0005301E0905401F090550108C0C09056019C
:10070000D0905701E0905801F090590120E030E07E
:1007100040E853E4C701B6010E94E80F87FF11C00B
:1007200020E030E0A901C701B6010E94D81187FD81
:1007300006C0C701B6010E945910698304C019821E
:1007400002C08FEF8983698188E006DD80915403C0
:10075000909155030197A9F4AA24A394B12C9CE588
:10076000C92E91E0D92EEE24E394F12C0BE511E093
:1007700021E030E04AE551E06EE872E085E693E082
:10078000E4D4A0915403B0915503BD87AC87119771
:1007900009F084C1E091DE02F091DF020190F08166
:1007A000E02D80819181A281B3818E839F83A88770
:1007B000B9878091AE029091AF02A091B002B09142
:1007C000B1028E879F87A88BB98BE091B202F0911E
:1007D000B302C080D180E280F380E091E202F09128
:1007E000E302A081B181BB83AA83E091A602F091CC
:1007F000A702808191819D838C8302811381248053
:100800003580A681B781BB87AA87E091A402F091C9
:10081000A50211821082EA81FB8180819181A281EF
:10082000B381EC81FD8180839183A283B383E091C6
:10083000DC02F091DD0211830083E5DC20E030E092
:1008400040E05FE3C701B6010E94DC112B013C01CF
:10085000D8012D913D914D915C910E94DC119B013D
:10086000AC01EC81FD8160817181828193810E9464
:10087000710FAA81BB816D937D938D939C93139788
:10088000E091DE02F091DF02A080B180A30192012D
:100890006E817F81888599850E94710FF501608343
:1008A000718382839383E091DC02F091DD023182D7
:1008B0002082D7DCA8DC20E030E040E45FE3C70121
:1008C000B6010E94DC114B015C0120E030E0A9017F
:1008D000C701B6010E94DC11D8012D913D914D91C7
:1008E0005C910E94DC112B013C01F10120813181DE
:1008F00042815381C501B4010E94DC119B01AC010E
:10090000C301B2010E94710F9B01AC01AC81BD819A
:100910006D917D918D919C910E94710FEA81FB8177
:100920006083718382839383E091DE02F091DF0222
:1009300060807180A50194016E817F818885998591
:100940000E94710FD3016D937D938D939C931397A8
:10095000E091DC02F091DD028A859B8591838083A2
:1009600080DC51DC29E33EE843E65EE3C701B601E3
:100970000E94DC11D8012D913D914D915C910E9416
:10098000DC114B015C012BEA3AEA4AEA5EE3C7015B
:10099000B6010E94DC11F101208131814281538135
:1009A0000E94DC119B01AC01C501B4010E94710FD2
:1009B0004B015C0129E33EE843EE5EE3C701B6016B
:1009C0000E94DC11AA85BB852D913D914D915C91D2
:1009D0000E94DC119B01AC01C501B4010E94710FA2
:1009E0009B01AC01EC81FD816081718182819381E9
:1009F0000E94710FAA81BB816D937D938D939C930F
:100A00001397E091DE02F091DF020190F081E02D7A
:100A10008E859F85A889B98980839183A283B383BA
:100A2000E091A402F091A502AC85BD85B183A083BD
:100A30008091480390914903A0914A03B0914B03E0
:100A40000196A11DB11D8093480390934903A09383
:100A50004A03B0934B038091AE029091AF02A091F4
:100A6000B002B091B102E0915703F0915803808336
:100A70009183A283B3838091500390915103A091FD
:100A80005203B09153030196A11DB11D80935003F1
:100A900090935103A0935203B093530362960FB601
:100AA000F894DEBF0FBECDBFDF91CF911F910F91A4
:100AB000FF90EF90DF90CF90BF90AF909F908F907E
:100AC0007F906F905F904F903F902F900895CF92BE
:100AD000DF92EF92FF92CF93DF9384E090E05ED1BC
:100AE000E0EAF2E081ECDF011D928A95E9F784E506
:100AF00093E09093A5028093A402A7E5B3E0B0939E
:100B0000DF02A093DE02CCE4D3E0D093B302C09323
:100B1000B20223E233E03093DD022093DC022DE1C8
:100B200033E03093E3022093E20242E453E0509337
:100B3000E1024093E00244E453E05093E502409325
:100B4000E4024FE153E05093E7024093E60241E2B2
:100B500053E05093E9024093E802F0930903E093D5
:100B60000803F093A302E093A20241E050E0FC01ED
:100B7000518340838AE393E04AE253E0FC015183CE
:100B800040834EE253E050933D0340933C0342E3E5
:100B900053E050933F0340933E0346E353E05093AA
:100BA00041034093400347E653E0F90151834083FA
:100BB0009093A7028093A60282E691E09093A90207
:100BC0008093A80289E593E08D939C938AE097ED4A
:100BD000A3E2BCE388839983AA83BB8386E0A1E672
:100BE000B3E0FD0111928A95E9F7DA011D921D9299
:100BF0001D921C921397E2E6F2E08EE3DF011D9254
:100C00008A95E9F7C12CD12C7601C394C082D18298
:100C1000E282F382C482D582E682F782C086D186E0
:100C2000E286F386C486D586E686F786C08AD18AB0
:100C3000E28AF38AC48AD58AE68AF78AC08ED18E80
:100C4000E28EF38EC48ED58EE68EF78EC0A2D1A230
:100C5000E2A2F3A280E090E0A0E8BFE380938A02E2
:100C600090938B02A0938C02B0938D02C092980255
:100C7000D0929902E0929A02F0929B0261E08DE09C
:100C800064DA61E080910A018AD4C0929C02D09219
:100C90009D02E0929E02F0929F0261E088E055DAA8
:100CA00010928E0210928F02109290021092910276
:100CB00010926703109268031092690310926A03FE
:100CC000DF91CF91FF90EF90DF90CF9008958091CA
:100CD000620290916302A0916402B0916502019753
:100CE000A105B10561F482E090E0A0E0B0E080935E
:100CF000620290936302A0936402B09365028091B4
:100D0000980290919902A0919A02B0919B0201974A
:100D1000A105B10561F482E090E0A0E0B0E080932D
:100D2000980290939902A0939A02B0939B028091AB
:100D30009C0290919D02A0919E02B0919F0201970A
:100D4000A105B10561F482E090E0A0E0B0E08093FD
:100D50009C0290939D02A0939E02B0939F020895DF
:100D600060E070E080E89FE7089560E070E080E870
:100D70009FE7089560E070E080E89FEF089560E0ED
:100D800070E080E89FEF089560E070E080EC9FEFF6
:100D9000089560E070E080EC9FEF0895F5DF6093C8
:100DA0007703709378038093790390937A03F1DF4C
:100DB00060936B0370936C0380936D0390936E0349
:100DC000CFDF6093730370937403809375039093E4
:100DD0007603CBDF60936F0370937003809371038E
:100DE00090937203C7DF60937B0370937C038093BF
:100DF0007D0390937E03C3DF60937F037093800332
:100E000080938103909382030895CF92DF92EF92B3
:100E1000FF92CF936B017C01209173033091740397
:100E200040917503509176030E94E80F882389F062
:100E3000C1E020917B0330917C0340917D03509170
:100E40007E03C701B6010E94E80F8111C0E08C2F1C
:100E500001C081E0CF91FF90EF90DF90CF90089597
:100E6000CF93C1E09B01AC010E94E80F811101C04A
:100E7000C0E08C2FCF91089502978431910540F402
:100E8000FC01E759FE4F8081992787FD90950895D1
:100E90008FEF9FEF0895CF93DF93EC0160E070E058
:100EA0006C177D070CF5882777FD8095982F0E9499
:100EB000871020E030E0A9010E94710F20E030E0AF
:100EC000A9010E94710F20E030E040E450E40E944C
:100ED000710F20E030E040E450E40E94700F0E9467
:100EE00054106F5F7F4FDCCFDF91CF910895CF9388
:100EF000DF938091960190919701BFD3EC0180918F
:100F00009A0190919B01C7DF809194019091950186
:100F1000B4D3019739F48091980190919901CD2B28
:100F200049F406C08091980190919901219711F49C
:100F3000019601C001979093990180939801DF91E8
:100F4000CF910895CF93DF93809194019091950173
:100F500094D3EC0180919A0190919B019CDF809148
:100F600096019091970189D3019739F48091980166
:100F700090919901219749F406C080919801909130
:100F80009901CD2B11F4019601C00197909399011D
:100F900080939801DF91CF910895CF93DF93809153
:100FA0009E0190919F0169D3EC018091A2019091E3
:100FB000A30171DF80919C0190919D015ED3019707
:100FC00039F48091A0019091A101CD2B49F406C084
:100FD0008091A0019091A101219711F4019601C087
:100FE00001979093A1018093A001DF91CF91089583
:100FF000CF93DF9380919C0190919D013ED3EC01B2
:101000008091A2019091A30146DF80919E01909171
:101010009F0133D3019739F48091A0019091A101F0
:10102000219749F406C08091A0019091A101CD2B98
:1010300011F4019601C001979093A1018093A00142
:10104000DF91CF910895CF93DF938091A601909186
:10105000A70113D3EC018091AA019091AB011BDF92
:101060008091A4019091A50108D3019739F4809152
:10107000A8019091A901CD2B49F406C08091A80147
:101080009091A901219711F4019601C001979093C5
:10109000A9018093A801DF91CF910895CF93DF93A9
:1010A0008091A4019091A501E8D2EC018091AA0160
:1010B0009091AB01F0DE8091A6019091A701DDD265
:1010C000019739F48091A8019091A901219749F4E1
:1010D00006C08091A8019091A901CD2B11F4019631
:1010E00001C001979093A9018093A801DF91CF914E
:1010F00008950F931F93CF93DF938C01EA0120E0B3
:1011000030E040E85FE3FB0160817181828193817F
:101110005FD7811115C0E88188E0E89FF0011124B4
:10112000EC56FE4F84819581F80191838083E8819C
:1011300088E0E89FF0011124EC56FE4F15821482DE
:10114000DF91CF911F910F910895CF92DF92EF928F
:10115000FF920F931F93CF93DF937B01EA0120E06F
:1011600030E040E85FE3DB016D917D918D919C91D2
:101170002FD7882309F490C0E881D8018C9190E0A2
:10118000B8E0EB9FF0011124EC56FE4F9183808371
:10119000E881D6018C9190E0B8E0EB9FF00111243A
:1011A000EC56FE4F93838283E88128E0E29FF001B2
:1011B0001124EC56FE4F8081918160E0F0D1E881EE
:1011C00088E0E89FF0011124EC56FE4F8281938164
:1011D00060E0E5D1E881A8E0EA9FF0011124EC5637
:1011E000FE4F8081918161E013D2E881B8E0EB9FEE
:1011F000F0011124EC56FE4F8281938161E008D208
:101200008881813061F1B8F0823009F03CC0809172
:10121000A4019091A50130DE41E050E063E278E066
:1012200045D08091A6019091A70126DE41E050E0D3
:101230006EE478E027C080919401909195011CDEC6
:1012400041E050E067E777E031D0809196019091DE
:10125000970112DE41E050E062EA77E013C080912E
:101260009C0190919D0108DE41E050E06DEC77E03B
:101270001DD080919E0190919F01FEDD41E050E0E4
:1012800068EF77E013D080E090E0A0E8BFE3F701DB
:1012900080839183A283B383DF91CF911F910F91BC
:1012A000FF90EF90DF90CF90089508958230E8F49A
:1012B000E82FF0E0EE0FFF1FE35AFE4F71836083CB
:1012C000813041F0809169008C7F842B809369008C
:1012D000E89A089580916900440F551F440F551FE7
:1012E000837F842B80936900E99A08951F920F925F
:1012F0000FB60F9211242F933F934F935F936F93E9
:101300007F938F939F93AF93BF93EF93FF93E0915E
:101310005D01F0915E010995FF91EF91BF91AF9151
:101320009F918F917F916F915F914F913F912F91FD
:101330000F900FBE0F901F9018951F920F920FB62F
:101340000F9211242F933F934F935F936F937F934B
:101350008F939F93AF93BF93EF93FF93E0915F01C0
:10136000F09160010995FF91EF91BF91AF919F912D
:101370008F917F916F915F914F913F912F910F903E
:101380000FBE0F901F9018951F920F920FB60F92DD
:1013900011242F933F938F939F93AF93BF9380918B
:1013A000AD019091AE01A091AF01B091B00130912B
:1013B000AC0123E0230F2D3720F40196A11DB11DB0
:1013C00005C026E8230F0296A11DB11D2093AC0194
:1013D0008093AD019093AE01A093AF01B093B001A3
:1013E0008091B1019091B201A091B301B091B4018B
:1013F0000196A11DB11D8093B1019093B201A093FC
:10140000B301B093B401BF91AF919F918F913F9180
:101410002F910F900FBE0F901F901895789484B560
:10142000826084BD84B5816084BD85B5826085BDE0
:1014300085B5816085BDEEE6F0E0808181608083C6
:10144000E1E8F0E0108280818260808380818160A9
:101450008083E0E8F0E0808181608083E1EBF0E070
:10146000808184608083E0EBF0E080818160808314
:10147000EAE7F0E0808184608083808182608083FD
:101480008081816080838081806880831092C10028
:1014900008951F93CF93DF93182FEB0161E07FD066
:1014A000209711F460E004C0CF3FD10531F461E032
:1014B000812FDF91CF911F91ABC0E12FF0E0E85970
:1014C000FF4FE491E330F9F048F4E130B9F0E23055
:1014D000A1F584B5806284BDC8BD34C0E730E9F0B1
:1014E000E83019F1E43049F5809180008062809302
:1014F0008000D0938B00C0938A0024C084B580689C
:1015000084BDC7BD1FC0809180008068809380002B
:10151000D0938900C093880015C08091B000806886
:101520008093B000C093B3000DC08091B000806282
:101530008093B000C093B40005C0C038D1050CF052
:10154000B6CFB0CFDF91CF911F910895833081F056
:1015500028F4813099F08230A1F008958730A9F005
:101560008830B9F08430D1F4809180008F7D03C041
:10157000809180008F7780938000089584B58F7765
:1015800002C084B58F7D84BD08958091B0008F77AF
:1015900003C08091B0008F7D8093B0000895CF93F9
:1015A000DF9390E0FC01E458FF4F2491FC01E057E9
:1015B000FF4F8491882349F190E0880F991FFC0127
:1015C000E854FF4FA591B49182559F4FFC01C591FE
:1015D000D4919FB7611108C0F8948C912095822313
:1015E0008C93888182230AC0623051F4F8948C91E4
:1015F000322F309583238C938881822B888304C07B
:10160000F8948C91822B8C939FBFDF91CF9108959A
:101610000F931F93CF93DF931F92CDB7DEB7282F81
:1016200030E0F901E859FF4F8491F901E458FF4F88
:101630001491F901E057FF4F04910023C1F0882372
:1016400019F0698383DF6981E02FF0E0EE0FFF1F5F
:10165000E255FF4FA591B4919FB7F8948C91611119
:1016600003C01095812301C0812B8C939FBF0F90E5
:10167000DF91CF911F910F910895CF93DF93282F82
:1016800030E0F901E859FF4F8491F901E458FF4F28
:10169000D491F901E057FF4FC491CC2389F0811117
:1016A00055DFEC2FF0E0EE0FFF1FEC55FF4FA5913B
:1016B000B4912C912D2381E090E021F480E002C0D0
:1016C00080E090E0DF91CF910895FC01818D228D23
:1016D00090E0805C9F4F821B91098F73992708953A
:1016E000FC01918D828D981731F0828DE80FF11DEC
:1016F000858D90E008958FEF9FEF0895FC01918D07
:10170000828D981761F0828DDF01A80FB11D5D9663
:101710008C91928D9F5F9F73928F90E008958FEFD1
:101720009FEF0895FC01848DDF01A80FB11DA35A1E
:10173000BF4F2C91848D90E001968F739927848FF1
:10174000A689B7892C93A089B1898C9180648C93E8
:10175000938D848D981306C00288F389E02D8081D3
:101760008F7D80830895CF93DF93EC01888D88234C
:10177000C1F0EA89FB89808185FD05C0A889B98906
:101780008C9186FD0EC00FB607FCF5CF808185FFDA
:10179000F2CFA889B9898C9185FFEDCFCE01C2DF48
:1017A000E8CFDF91CF910895CF92DF92FF920F9310
:1017B0001F93CF93DF931F92CDB7DEB76C0181E00B
:1017C000D60158968C9358975B969C915B975C9644
:1017D0008C915C97981307C05096ED91FC915197AE
:1017E000808185FD2DC0F601038D10E00F5F1F4F36
:1017F0000F731127F02EF601848DF81210C00FB66A
:1018000007FCF9CFD6015096ED91FC91519780815C
:1018100085FFF1CFC601698385DF6981ECCF838DB8
:10182000E80FF11DE35AFF4F6083D6015B960C93DE
:101830005B975296ED91FC915397808180620CC02A
:10184000D6015696ED91FC91579760835096ED9195
:10185000FC91519780818064808381E090E00F90BB
:10186000DF91CF911F910F91FF90DF90CF9008955E
:10187000BF92CF92DF92EF92FF92CF93DF93EC0172
:101880006A017B01B22EE889F98982E080834115E3
:1018900081EE58076105710599F060E079E08DE30C
:1018A00090E0A7019601EBD521503109410951097A
:1018B0005695479537952795211580E1380790F083
:1018C000E889F989108260E874E88EE190E0A70168
:1018D0009601D5D5215031094109510956954795B1
:1018E00037952795EC85FD853083EE85FF85208330
:1018F000188EEC89FD89B082EA89FB89808180613C
:101900008083EA89FB89808188608083EA89FB89FA
:10191000808180688083EA89FB8980818F7D8083D4
:10192000DF91CF91FF90EF90DF90CF90BF9008951F
:101930001F920F920FB60F9211242F938F939F93A4
:10194000EF93FF93E091C501F091C6018081E09192
:10195000CB01F091CC0182FD12C090818091CE012B
:101960008F5F8F732091CF01821751F0E091CE01EC
:10197000F0E0EB54FE4F958F8093CE0101C0808143
:10198000FF91EF919F918F912F910F900FBE0F902C
:101990001F9018951F920F920FB60F9211242F933C
:1019A0003F934F935F936F937F938F939F93AF93E7
:1019B000BF93EF93FF9385EB91E0B4DEFF91EF913E
:1019C000BF91AF919F918F917F916F915F914F9157
:1019D0003F912F910F900FBE0F901F90189510926E
:1019E000B8011092B70188EE93E0A0E0B0E08093D8
:1019F000B9019093BA01A093BB01B093BC0181E8F7
:101A000091E09093B6018093B50185EC90E09093BE
:101A1000C2018093C10184EC90E09093C401809353
:101A2000C30180EC90E09093C6018093C50181ECE6
:101A300090E09093C8018093C70182EC90E090936E
:101A4000CA018093C90186EC90E09093CC01809309
:101A5000CB011092CE011092CF011092D0011092C2
:101A6000D1010895AF92BF92CF92DF92EF92FF9291
:101A70000F931F93CF93DF936C017B01C0E0D0E005
:101A800000E010E0F601EC0FFD1F4AE050E062813B
:101A9000C701D6D05C016EE2C70168D08A0D9B1DDC
:101AA000080F191F2196C330D10561F74AE050E0B5
:101AB000F6016581C701C4D0800F911FDF91CF91DE
:101AC0001F910F91FF90EF90DF90CF90BF90AF905C
:101AD000089581E991E0909353028093520210920D
:101AE0005402109255021092560210925702089515
:101AF000CF92DF92EF92FF920F931F93CF93DF93DA
:101B00007C016A01EB0100E010E00C151D0571F08D
:101B10006991D701ED91FC910190F081E02DC70111
:101B20000995892B19F00F5F1F4FEFCFC801DF9187
:101B3000CF911F910F91FF90EF90DF90CF9008957C
:101B40006115710581F0DB010D900020E9F7AD0111
:101B500041505109461B570BDC01ED91FC9102806D
:101B6000F381E02D099480E090E00895DC01ED918F
:101B7000FC910190F081E02D09948F929F92AF9299
:101B8000BF92CF92DF92EF92FF920F931F93CF936A
:101B9000DF93CDB7DEB7A1970FB6F894DEBF0FBEC7
:101BA000CDBF7C01C42EE52FCB01D22E19A221E09E
:101BB0002D1510F02AE0D22E8E010F5D1F4F8D2CB7
:101BC000912CA12CB12C6C2D7E2FA501940157D402
:101BD0008C2DD29E80191124015011098A3014F4E1
:101BE000805D01C0895CF8018083211531054105C4
:101BF000510521F0C22EE32FCA01E5CFB801C7017C
:101C00009FDFA1960FB6F894DEBF0FBECDBFDF9168
:101C1000CF911F910F91FF90EF90DF90CF90BF90E9
:101C2000AF909F908F9008952115310541F4DC010C
:101C3000ED91FC910190F081E02D642F09949DCFEE
:101C40009A01462F50E060E070E0EECF813039F02D
:101C500018F0823051F0089510926E00089580912E
:101C60006F008D7F80936F000895809170008D7F4D
:101C70008093700081E08093B0008091B100887FF4
:101C800084608093B1001092B3000895CF93C82F61
:101C9000809161018C1307C0E2ECF0E084919FEF2A
:101CA0009093610101C08FEFD1DF60E08C2FCF9165
:101CB000AFCC1F920F920FB60F9211242F933F9328
:101CC0004F935F936F937F938F939F93AF93BF9344
:101CD000EF93FF9380915B0290915C02A0915D0273
:101CE000B0915E02892B8A2B8B2B51F19091580277
:101CF000E0915902F0915A02808189278083809176
:101D00005B0290915C02A0915D02B0915E02181698
:101D100019061A061B06BCF480915B0290915C02C6
:101D2000A0915D02B0915E020197A109B109809373
:101D30005B0290935C02A0935D02B0935E0203C0CD
:101D400080916101A3DFFF91EF91BF91AF919F91CE
:101D50008F917F916F915F914F913F912F910F9054
:101D60000FBE0F901F90189540E052EC61E070E0BC
:101D700080E090E000C026E085EB91E079CD1F92F5
:101D80000F920FB60F9211242F933F934F935F93AF
:101D90006F937F938F939F93AF93BF93EF93FF9333
:101DA0008FE89DEF909385008093840032D0FF915F
:101DB000EF91BF91AF919F918F917F916F915F91C3
:101DC0004F913F912F910F900FBE0F901F9018953C
:101DD0008FE89DEF9093850080938400AFE6B0E09C
:101DE0008C918E7F8C93E0E8F0E080818C7F808303
:101DF000E1E8F0E08081877E808380818460808359
:101E000080818C7F80838C9181608C93089581E0A8
:101E1000089520915F0281E0820F80935F02222368
:101E200049F081E090E090936102809360022093FA
:101E30005F02089578940E943101F89480915F02C6
:101E4000815080935F020895EF92FF920F931F934A
:101E5000CF93DF931F92CDB7DEB781E08983DEDABF
:101E600083DF0091670110916801F80111821082EF
:101E70000E946705ADDFF80180819181892B29F4EB
:101E800081E0EA54FF4F9081911180E0898378943A
:101E900078947801F6EBEF0EF11C8981882399F094
:101EA000F80180819181892B21F481E0F7019081F3
:101EB000911180E089838981882311F0A8DF01C016
:101EC00080E08983EACF0E946706F89480E090E082
:101ED0000F90DF91CF911F910F91FF90EF90089598
:101EE0005058BB27AA270ED012C203D230F008D216
:101EF00020F031F49F3F11F41EF4F8C10EF4E09588
:101F0000E7FBC5C1E92F14D280F3BA176207730744
:101F10008407950718F071F49EF543C20EF4E0951E
:101F20000B2EBA2FA02D0B01B90190010C01CA0193
:101F3000A0011124FF27591B99F0593F50F4503E3E
:101F400068F11A16F040A22F232F342F4427585F30
:101F5000F3CF469537952795A795F0405395C9F748
:101F60007EF41F16BA0B620B730B840BBAF0915000
:101F7000A1F0FF0FBB1F661F771F881FC2F70EC09F
:101F8000BA0F621F731F841F48F487957795679572
:101F9000B795F7959E3F08F0B3CF9395880F08F05B
:101FA0009927EE0F979587950895E4D180F09F3794
:101FB00040F491110EF4F6C160E070E080E89FE318
:101FC000089526F01B16611D711D811D66C180C11B
:101FD0003AD108F481E008950CD099C191D140F034
:101FE00088D130F021F45F3F19F051C15111DAC1AD
:101FF0007DC19ED198F39923C9F35523B1F3951B65
:10200000550BBB27AA2762177307840738F09F5F19
:102010005F4F220F331F441FAA1FA9F333D00E2E88
:102020003AF0E0E830D091505040E695001CCAF7F5
:1020300029D0FE2F27D0660F771F881FBB1F2617BA
:1020400037074807AB07B0E809F0BB0B802DBF018D
:10205000FF2793585F4F2AF09E3F510568F017C144
:10206000A1C15F3FECF3983EDCF3869577956795C9
:10207000B795F7959F5FC9F7880F911D969587953E
:1020800097F90895E1E0660F771F881FBB1F62175D
:1020900073078407BA0720F0621B730B840BBA0B1B
:1020A000EE1F88F7E095089504D06894B1117AC1C5
:1020B000089546D188F09F5790F0B92F9927B751CE
:1020C000A0F0D1F0660F771F881F991F1AF0BA95FC
:1020D000C9F712C0B13081F064D1B1E0089561C197
:1020E000672F782F8827B85F39F0B93FCCF38695F2
:1020F00077956795B395D9F73EF49095809570954F
:1021000061957F4F8F4F9F4F0895E89409C097FBCB
:102110003EF490958095709561957F4F8F4F9F4FBE
:102120009923A9F0F92F96E9BB279395F695879502
:1021300077956795B795F111F8CFFAF4BB0F11F4C5
:1021400060FF1BC06F5F7F4F8F4F9F4F16C088236C
:1021500011F096E911C0772321F09EE8872F762FA2
:1021600005C0662371F096E8862F70E060E02AF0E3
:102170009A95660F771F881FDAF7880F96958795CF
:1021800097F90895F7D080F09F3740F491110EF041
:1021900009C160E070E080E89FEB089526F41B160B
:1021A000611D711D811D79C093C0A3D018F011F07D
:1021B000A7D038F49BC0F6C0E92FBAD0B0F35523AE
:1021C000C9F3E7FB6217730784079507A8F199F332
:1021D000E92FFF2788232AF03197660F771F881F82
:1021E000DAF7952F5527442332F091505040220FB3
:1021F000331F441FD2F7BB27E91BF50B621B730B80
:10220000840BB109C1F222F4620F731F841FB11D48
:1022100031972AF0660F771F881FBB1FEFCF9150B1
:1022200050405AF041F0882332F0660F771F881F24
:1022300091505040C1F793954BC08695779567951F
:102240009F5FD9F7F8CF990F0008550FAA0BE0E868
:10225000FEEF16161706E807F907C0F01216130668
:10226000E407F50798F0621B730B840B950B39F4A8
:102270000A2661F0232B242B252B21F408950A260E
:1022800009F4A140A6958FEF811D811D089597F94E
:102290009F6780E870E060E00895882371F47723F9
:1022A00021F09850872B762F07C0662311F49927C9
:1022B0000DC09051862B70E060E02AF09A95660F71
:1022C000771F881FDAF7880F9695879597F90895F5
:1022D0009F3F31F0915020F4879577956795B7959A
:1022E000880F911D9695879597F908959FEF80EC3B
:1022F000089500240A94161617061806090608956C
:1023000000240A9412161306140605060895092ED1
:102310000394000C11F4882352F0BB0F40F4BF2B40
:1023200011F460FF04C06F5F7F4F8F4F9F4F089580
:1023300057FD9058440F551F59F05F3F71F0479576
:10234000880F97FB991F61F09F3F79F0879508955B
:10235000121613061406551FF2CF4695F1DF08C07A
:10236000161617061806991FF1CF86957105610597
:1023700008940895E5DFA0F0BEE7B91788F4BB27FD
:102380009F3860F41616B11D672F782F8827985F45
:10239000F7CF869577956795B11D93959639C8F3D4
:1023A0000895E894BB2766277727CB0197F908950E
:1023B0004ADF08F48FEF08950BD0A9CF9ADF28F0F9
:1023C0009FDF18F0952309F062CF90CF1124EACF58
:1023D000AFDFA0F3959FD1F3950F50E0551F629F9B
:1023E000F001729FBB27F00DB11D639FAA27F00D6E
:1023F000B11DAA1F649F6627B00DA11D661F829F95
:102400002227B00DA11D621F739FB00DA11D621F79
:10241000839FA00D611D221F749F3327A00D611D96
:10242000231F849F600D211D822F762F6A2F112478
:102430009F5750408AF0E1F088234AF0EE0FFF1FCB
:10244000BB1F661F771F881F91505040A9F79E3F02
:10245000510570F01CCFA6CF5F3FECF3983EDCF344
:10246000869577956795B795F795E7959F5FC1F73F
:10247000FE2B880F911D9695879597F90895A1E2F7
:102480001A2EAA1BBB1BFD010DC0AA1FBB1FEE1FEE
:10249000FF1FA217B307E407F50720F0A21BB30B39
:1024A000E40BF50B661F771F881F991F1A9469F7B5
:1024B00060957095809590959B01AC01BD01CF0111
:1024C0000895EE0FFF1F0590F491E02D0994F89404
:0224D000FFCF3C
:1024D200000083038000010000000B000000008068
:1024E200BB45000048450000803F0000000000009E
:1024F20000000000484200000080A470DD3F58FB4D
:10250200963E00004041000040C10000AA41000088
:1025120000000000000000007F43000000000000F7
:1025220000000000000000000000000203550955F1
:1025320009FF6F64653300A0020001FFFFFFFFFF88
:10254200FFFFFFFFFFFFFFFFFF0504030200000084
:1025520000D40B780D650B7E0B700BB30B000000E3
:0425620000320D0036
:00000001FF
